{"contracts/farms/FarmRegistry.sol":{"FarmRegistry":{"abi":[{"inputs":[],"stateMutability":"nonpayable","type":"constructor"},{"inputs":[{"internalType":"address","name":"owner","type":"address"}],"name":"OwnableInvalidOwner","type":"error"},{"inputs":[{"internalType":"address","name":"account","type":"address"}],"name":"OwnableUnauthorizedAccount","type":"error"},{"anonymous":false,"inputs":[{"indexed":true,"internalType":"string","name":"farmId","type":"string"},{"indexed":false,"internalType":"address","name":"tokenAddress","type":"address"}],"name":"FarmApproved","type":"event"},{"anonymous":false,"inputs":[{"indexed":true,"internalType":"string","name":"farmId","type":"string"},{"indexed":true,"internalType":"address","name":"farmer","type":"address"}],"name":"FarmRegistered","type":"event"},{"anonymous":false,"inputs":[{"indexed":true,"internalType":"address","name":"farmer","type":"address"}],"name":"FarmerApproved","type":"event"},{"anonymous":false,"inputs":[{"indexed":true,"internalType":"address","name":"previousOwner","type":"address"},{"indexed":true,"internalType":"address","name":"newOwner","type":"address"}],"name":"OwnershipTransferred","type":"event"},{"inputs":[{"internalType":"string","name":"_farmId","type":"string"},{"internalType":"string","name":"_tokenName","type":"string"},{"internalType":"string","name":"_tokenSymbol","type":"string"},{"internalType":"uint256","name":"_tokenPrice","type":"uint256"},{"internalType":"uint256","name":"_maxSupply","type":"uint256"}],"name":"approveFarm","outputs":[],"stateMutability":"nonpayable","type":"function"},{"inputs":[{"internalType":"address","name":"_farmer","type":"address"}],"name":"approveFarmer","outputs":[],"stateMutability":"nonpayable","type":"function"},{"inputs":[{"internalType":"address","name":"","type":"address"}],"name":"approvedFarmers","outputs":[{"internalType":"bool","name":"","type":"bool"}],"stateMutability":"view","type":"function"},{"inputs":[{"internalType":"uint256","name":"","type":"uint256"}],"name":"farmIds","outputs":[{"internalType":"string","name":"","type":"string"}],"stateMutability":"view","type":"function"},{"inputs":[{"internalType":"string","name":"","type":"string"}],"name":"farms","outputs":[{"internalType":"string","name":"farmId","type":"string"},{"internalType":"string","name":"name","type":"string"},{"internalType":"string","name":"cropType","type":"string"},{"internalType":"string","name":"location","type":"string"},{"internalType":"address","name":"farmer","type":"address"},{"internalType":"address","name":"tokenAddress","type":"address"},{"internalType":"uint256","name":"fundingGoal","type":"uint256"},{"internalType":"enum FarmRegistry.FarmStatus","name":"status","type":"uint8"},{"internalType":"uint256","name":"createdAt","type":"uint256"}],"stateMutability":"view","type":"function"},{"inputs":[],"name":"getAllFarms","outputs":[{"internalType":"string[]","name":"","type":"string[]"}],"stateMutability":"view","type":"function"},{"inputs":[{"internalType":"string","name":"_farmId","type":"string"}],"name":"getFarm","outputs":[{"components":[{"internalType":"string","name":"farmId","type":"string"},{"internalType":"string","name":"name","type":"string"},{"internalType":"string","name":"cropType","type":"string"},{"internalType":"string","name":"location","type":"string"},{"internalType":"address","name":"farmer","type":"address"},{"internalType":"address","name":"tokenAddress","type":"address"},{"internalType":"uint256","name":"fundingGoal","type":"uint256"},{"internalType":"enum FarmRegistry.FarmStatus","name":"status","type":"uint8"},{"internalType":"uint256","name":"createdAt","type":"uint256"}],"internalType":"struct FarmRegistry.Farm","name":"","type":"tuple"}],"stateMutability":"view","type":"function"},{"inputs":[],"name":"owner","outputs":[{"internalType":"address","name":"","type":"address"}],"stateMutability":"view","type":"function"},{"inputs":[{"internalType":"string","name":"_farmId","type":"string"},{"internalType":"string","name":"_name","type":"string"},{"internalType":"string","name":"_cropType","type":"string"},{"internalType":"string","name":"_location","type":"string"},{"internalType":"uint256","name":"_fundingGoal","type":"uint256"},{"internalType":"uint256","name":"_harvestDate","type":"uint256"}],"name":"registerFarm","outputs":[],"stateMutability":"nonpayable","type":"function"},{"inputs":[],"name":"renounceOwnership","outputs":[],"stateMutability":"nonpayable","type":"function"},{"inputs":[{"internalType":"address","name":"newOwner","type":"address"}],"name":"transferOwnership","outputs":[],"stateMutability":"nonpayable","type":"function"}],"evm":{"bytecode":{"linkReferences":{},"object":"608060405234801561001057600080fd5b50338061003757604051631e4fbdf760e01b81526000600482015260240160405180910390fd5b61004081610046565b50610096565b600080546001600160a01b038381166001600160a01b0319831681178455604051919092169283917f8be0079c531659141344cd1fd0a4f28419497f9722a3daafe3b4186f6b6457e09190a35050565b612d6f806100a56000396000f3fe60806040523480156200001157600080fd5b5060043610620000b75760003560e01c8063715018a6116200007a578063715018a614620001645780638da5cb5b146200016e578063ac9f1276146200018a578063c374f05714620001b8578063f2fde38b14620001de578063f955977414620001f557600080fd5b806302a6711614620000bc5780632c133dac14620000d5578063448c95f214620001105780634b3cc6e514620001275780634b87ecae146200013e575b600080fd5b620000d3620000cd36600462000fb9565b6200020e565b005b620000fb620000e63660046200105d565b60026020526000908152604090205460ff1681565b60405190151581526020015b60405180910390f35b620000d3620001213660046200108f565b62000382565b620000d3620001383660046200105d565b6200060e565b620001556200014f3660046200115b565b62000664565b60405162000107919062001229565b620000d362000976565b6000546040516001600160a01b03909116815260200162000107565b620001a16200019b3660046200115b565b6200098e565b60405162000107999897969594939291906200130e565b620001cf620001c9366004620013ac565b62000c33565b604051620001079190620013c6565b620000d3620001ef3660046200105d565b62000ce8565b620001ff62000d2c565b604051620001079190620013db565b6200021862000e0f565b60006001866040516200022c919062001441565b90815260405190819003602001902090506000600782015460ff1660048111156200025b576200025b620011f0565b146200029c5760405162461bcd60e51b815260206004820152600b60248201526a4e6f742070656e64696e6760a81b60448201526064015b60405180910390fd5b6000858584868a86600101876002018860030189600601546000604051620002c49062000e8e565b620002d99a9998979695949392919062001520565b604051809103906000f080158015620002f6573d6000803e3d6000fd5b506005830180546001600160a01b0319166001600160a01b03831617905560078301805460ff191660011790556040519091506200033690889062001441565b6040519081900381206001600160a01b0383168252907f4b5d1bcb296ef4c6e504c0f1849a5b9c047b99d50305918f8e76438f05a49d1c9060200160405180910390a250505050505050565b3360009081526002602052604090205460ff16620003d95760405162461bcd60e51b81526020600482015260136024820152722737ba1030b8383937bb32b2103330b936b2b960691b604482015260640162000293565b600186604051620003eb919062001441565b908152604051908190036020019020805462000407906200145f565b159050620004465760405162461bcd60e51b815260206004820152600b60248201526a4661726d2065786973747360a81b604482015260640162000293565b60408051610120810182528781526020810187905280820186905260608101859052336080820152600060a0820181905260c0820185905260e08201524261010082015290516001906200049c90899062001441565b90815260405190819003602001902081518190620004bb90826200161f565b5060208201516001820190620004d290826200161f565b5060408201516002820190620004e990826200161f565b50606082015160038201906200050090826200161f565b506080820151600480830180546001600160a01b039384166001600160a01b03199182161790915560a08501516005850180549190941691161790915560c0830151600683015560e08301516007830180549192909160ff1916906001908490811115620005725762000572620011f0565b02179055506101009190910151600890910155600380546001810182556000919091527fc2575a0e9e593c00f959f8c92f12db2869c3395a3b0502d05e2516446f71f85b01620005c387826200161f565b506040513390620005d690889062001441565b604051908190038120907f54c0e5fcc6078cce5bf275e6569132e9bfb374d77df38db95adce71f95c3656b90600090a3505050505050565b6200061862000e0f565b6001600160a01b038116600081815260026020526040808220805460ff19166001179055517f3547bca6e79a5be28978b935492502bbbc9e6dcf031636de11dfce9d1f27997b9190a250565b6200066e62000e9c565b60018260405162000680919062001441565b908152602001604051809103902060405180610120016040529081600082018054620006ac906200145f565b80601f0160208091040260200160405190810160405280929190818152602001828054620006da906200145f565b80156200072b5780601f10620006ff576101008083540402835291602001916200072b565b820191906000526020600020905b8154815290600101906020018083116200070d57829003601f168201915b5050505050815260200160018201805462000746906200145f565b80601f016020809104026020016040519081016040528092919081815260200182805462000774906200145f565b8015620007c55780601f106200079957610100808354040283529160200191620007c5565b820191906000526020600020905b815481529060010190602001808311620007a757829003601f168201915b50505050508152602001600282018054620007e0906200145f565b80601f01602080910402602001604051908101604052809291908181526020018280546200080e906200145f565b80156200085f5780601f1062000833576101008083540402835291602001916200085f565b820191906000526020600020905b8154815290600101906020018083116200084157829003601f168201915b505050505081526020016003820180546200087a906200145f565b80601f0160208091040260200160405190810160405280929190818152602001828054620008a8906200145f565b8015620008f95780601f10620008cd57610100808354040283529160200191620008f9565b820191906000526020600020905b815481529060010190602001808311620008db57829003601f168201915b50505091835250506004828101546001600160a01b039081166020840152600584015416604083015260068301546060830152600783015460809092019160ff16908111156200094d576200094d620011f0565b6004811115620009615762000961620011f0565b81526020016008820154815250509050919050565b6200098062000e0f565b6200098c600062000e3e565b565b8051602081830181018051600182529282019190930120915280548190620009b6906200145f565b80601f0160208091040260200160405190810160405280929190818152602001828054620009e4906200145f565b801562000a355780601f1062000a095761010080835404028352916020019162000a35565b820191906000526020600020905b81548152906001019060200180831162000a1757829003601f168201915b50505050509080600101805462000a4c906200145f565b80601f016020809104026020016040519081016040528092919081815260200182805462000a7a906200145f565b801562000acb5780601f1062000a9f5761010080835404028352916020019162000acb565b820191906000526020600020905b81548152906001019060200180831162000aad57829003601f168201915b50505050509080600201805462000ae2906200145f565b80601f016020809104026020016040519081016040528092919081815260200182805462000b10906200145f565b801562000b615780601f1062000b355761010080835404028352916020019162000b61565b820191906000526020600020905b81548152906001019060200180831162000b4357829003601f168201915b50505050509080600301805462000b78906200145f565b80601f016020809104026020016040519081016040528092919081815260200182805462000ba6906200145f565b801562000bf75780601f1062000bcb5761010080835404028352916020019162000bf7565b820191906000526020600020905b81548152906001019060200180831162000bd957829003601f168201915b505050600484015460058501546006860154600787015460089097015495966001600160a01b0393841696929093169450925060ff9091169089565b6003818154811062000c4457600080fd5b90600052602060002001600091509050805462000c61906200145f565b80601f016020809104026020016040519081016040528092919081815260200182805462000c8f906200145f565b801562000ce05780601f1062000cb45761010080835404028352916020019162000ce0565b820191906000526020600020905b81548152906001019060200180831162000cc257829003601f168201915b505050505081565b62000cf262000e0f565b6001600160a01b03811662000d1e57604051631e4fbdf760e01b81526000600482015260240162000293565b62000d298162000e3e565b50565b60606003805480602002602001604051908101604052809291908181526020016000905b8282101562000e0657838290600052602060002001805462000d72906200145f565b80601f016020809104026020016040519081016040528092919081815260200182805462000da0906200145f565b801562000df15780601f1062000dc55761010080835404028352916020019162000df1565b820191906000526020600020905b81548152906001019060200180831162000dd357829003601f168201915b50505050508152602001906001019062000d50565b50505050905090565b6000546001600160a01b031633146200098c5760405163118cdaa760e01b815233600482015260240162000293565b600080546001600160a01b038381166001600160a01b0319831681178455604051919092169283917f8be0079c531659141344cd1fd0a4f28419497f9722a3daafe3b4186f6b6457e09190a35050565b61164d80620016ed83390190565b6040518061012001604052806060815260200160608152602001606081526020016060815260200160006001600160a01b0316815260200160006001600160a01b03168152602001600081526020016000600481111562000f015762000f01620011f0565b8152602001600081525090565b634e487b7160e01b600052604160045260246000fd5b600082601f83011262000f3657600080fd5b813567ffffffffffffffff8082111562000f545762000f5462000f0e565b604051601f8301601f19908116603f0116810190828211818310171562000f7f5762000f7f62000f0e565b8160405283815286602085880101111562000f9957600080fd5b836020870160208301376000602085830101528094505050505092915050565b600080600080600060a0868803121562000fd257600080fd5b853567ffffffffffffffff8082111562000feb57600080fd5b62000ff989838a0162000f24565b965060208801359150808211156200101057600080fd5b6200101e89838a0162000f24565b955060408801359150808211156200103557600080fd5b50620010448882890162000f24565b9598949750949560608101359550608001359392505050565b6000602082840312156200107057600080fd5b81356001600160a01b03811681146200108857600080fd5b9392505050565b60008060008060008060c08789031215620010a957600080fd5b863567ffffffffffffffff80821115620010c257600080fd5b620010d08a838b0162000f24565b97506020890135915080821115620010e757600080fd5b620010f58a838b0162000f24565b965060408901359150808211156200110c57600080fd5b6200111a8a838b0162000f24565b955060608901359150808211156200113157600080fd5b506200114089828a0162000f24565b9350506080870135915060a087013590509295509295509295565b6000602082840312156200116e57600080fd5b813567ffffffffffffffff8111156200118657600080fd5b620011948482850162000f24565b949350505050565b60005b83811015620011b95781810151838201526020016200119f565b50506000910152565b60008151808452620011dc8160208601602086016200119c565b601f01601f19169290920160200192915050565b634e487b7160e01b600052602160045260246000fd5b600581106200122557634e487b7160e01b600052602160045260246000fd5b9052565b60208152600082516101208060208501526200124a610140850183620011c2565b91506020850151601f19808685030160408701526200126a8483620011c2565b93506040870151915080868503016060870152620012898483620011c2565b9350606087015191508086850301608087015250620012a98382620011c2565b9250506080850151620012c760a08601826001600160a01b03169052565b5060a08501516001600160a01b03811660c08601525060c085015160e085015260e0850151610100620012fd8187018362001206565b959095015193019290925250919050565b6000610120808352620013248184018d620011c2565b905082810360208401526200133a818c620011c2565b9050828103604084015262001350818b620011c2565b9050828103606084015262001366818a620011c2565b6001600160a01b038981166080860152881660a085015260c08401879052915062001397905060e083018562001206565b826101008301529a9950505050505050505050565b600060208284031215620013bf57600080fd5b5035919050565b602081526000620010886020830184620011c2565b6000602080830181845280855180835260408601915060408160051b870101925083870160005b828110156200143457603f1988860301845262001421858351620011c2565b9450928501929085019060010162001402565b5092979650505050505050565b60008251620014558184602087016200119c565b9190910192915050565b600181811c908216806200147457607f821691505b6020821081036200149557634e487b7160e01b600052602260045260246000fd5b50919050565b60008154620014aa816200145f565b808552602060018381168015620014ca5760018114620014e55762001515565b60ff1985168884015283151560051b88018301955062001515565b866000528260002060005b858110156200150d5781548a8201860152908301908401620014f0565b890184019650505b505050505092915050565b6000610140808352620015368184018e620011c2565b905082810360208401526200154c818d620011c2565b90508a604084015289606084015282810360808401526200156e818a620011c2565b905082810360a08401526200158481896200149b565b905082810360c08401526200159a81886200149b565b905082810360e0840152620015b081876200149b565b6101008401959095525050610120015298975050505050505050565b601f8211156200161a57600081815260208120601f850160051c81016020861015620015f55750805b601f850160051c820191505b81811015620016165782815560010162001601565b5050505b505050565b815167ffffffffffffffff8111156200163c576200163c62000f0e565b62001654816200164d84546200145f565b84620015cc565b602080601f8311600181146200168c5760008415620016735750858301515b600019600386901b1c1916600185901b17855562001616565b600085815260208120601f198616915b82811015620016bd578886015182559484019460019091019084016200169c565b5085821015620016dc5787850151600019600388901b60f8161c191681555b5050505050600190811b0190555056fe60a06040523480156200001157600080fd5b506040516200164d3803806200164d833981016040819052620000349162000207565b338a8a6003620000458382620003c7565b506004620000548282620003c7565b5050506001600160a01b0381166200008657604051631e4fbdf760e01b81526000600482015260240160405180910390fd5b6200009181620000f0565b50608088905260068790556007620000aa8782620003c7565b506008620000b98682620003c7565b506009620000c88582620003c7565b50600a620000d78482620003c7565b50600b91909155600c5550620004939650505050505050565b600580546001600160a01b038381166001600160a01b0319831681179093556040519116919082907f8be0079c531659141344cd1fd0a4f28419497f9722a3daafe3b4186f6b6457e090600090a35050565b634e487b7160e01b600052604160045260246000fd5b600082601f8301126200016a57600080fd5b81516001600160401b038082111562000187576200018762000142565b604051601f8301601f19908116603f01168101908282118183101715620001b257620001b262000142565b81604052838152602092508683858801011115620001cf57600080fd5b600091505b83821015620001f35785820183015181830184015290820190620001d4565b600093810190920192909252949350505050565b6000806000806000806000806000806101408b8d0312156200022857600080fd5b8a516001600160401b03808211156200024057600080fd5b6200024e8e838f0162000158565b9b5060208d01519150808211156200026557600080fd5b620002738e838f0162000158565b9a5060408d0151995060608d0151985060808d01519150808211156200029857600080fd5b620002a68e838f0162000158565b975060a08d0151915080821115620002bd57600080fd5b620002cb8e838f0162000158565b965060c08d0151915080821115620002e257600080fd5b620002f08e838f0162000158565b955060e08d01519150808211156200030757600080fd5b50620003168d828e0162000158565b9350506101008b015191506101208b015190509295989b9194979a5092959850565b600181811c908216806200034d57607f821691505b6020821081036200036e57634e487b7160e01b600052602260045260246000fd5b50919050565b601f821115620003c257600081815260208120601f850160051c810160208610156200039d5750805b601f850160051c820191505b81811015620003be57828155600101620003a9565b5050505b505050565b81516001600160401b03811115620003e357620003e362000142565b620003fb81620003f4845462000338565b8462000374565b602080601f8311600181146200043357600084156200041a5750858301515b600019600386901b1c1916600185901b178555620003be565b600085815260208120601f198616915b82811015620004645788860151825594840194600190910190840162000443565b5085821015620004835787850151600019600388901b60f8161c191681555b5050505050600190811b01905550565b608051611197620004b6600039600081816103ca01526109ef01526111976000f3fe6080604052600436106101665760003560e01c806370a08231116100d15780638da5cb5b1161008a578063d5abeb0111610064578063d5abeb01146103b8578063dd62ed3e146103ec578063ed0ea00314610432578063f2fde38b1461045f57600080fd5b80638da5cb5b1461035b57806395d89b4114610383578063a9059cbb1461039857600080fd5b806370a08231146102bb578063715018a6146102f157806375513802146103065780637a3a0e841461031c5780637b97008d146103325780637ff9b5961461034557600080fd5b8063278de00011610123578063278de00014610241578063313ce567146102565780633ccfd60b14610272578063516f279e1461028957806362b1f2ed1461029e57806365c3c9b7146102b357600080fd5b806303e781031461016b57806306fdde031461019657806309434f28146101ab578063095ea7b3146101d257806318160ddd1461020257806323b872dd14610221575b600080fd5b34801561017757600080fd5b5061018061047f565b60405161018d9190610f6e565b60405180910390f35b3480156101a257600080fd5b5061018061050d565b3480156101b757600080fd5b506101c061059f565b60405161018d96959493929190610f88565b3480156101de57600080fd5b506101f26101ed366004611007565b6107fa565b604051901515815260200161018d565b34801561020e57600080fd5b506002545b60405190815260200161018d565b34801561022d57600080fd5b506101f261023c366004611031565b610814565b34801561024d57600080fd5b50610180610838565b34801561026257600080fd5b506040516012815260200161018d565b34801561027e57600080fd5b50610287610845565b005b34801561029557600080fd5b50610180610889565b3480156102aa57600080fd5b50610180610896565b6102876108a3565b3480156102c757600080fd5b506102136102d636600461106d565b6001600160a01b031660009081526020819052604090205490565b3480156102fd57600080fd5b5061028761092a565b34801561031257600080fd5b50610213600c5481565b34801561032857600080fd5b50610213600b5481565b610287610340366004611088565b61093e565b34801561035157600080fd5b5061021360065481565b34801561036757600080fd5b506005546040516001600160a01b03909116815260200161018d565b34801561038f57600080fd5b50610180610b2c565b3480156103a457600080fd5b506101f26103b3366004611007565b610b3b565b3480156103c457600080fd5b506102137f000000000000000000000000000000000000000000000000000000000000000081565b3480156103f857600080fd5b506102136104073660046110a1565b6001600160a01b03918216600090815260016020908152604080832093909416825291909152205490565b34801561043e57600080fd5b5061021361044d36600461106d565b600d6020526000908152604090205481565b34801561046b57600080fd5b5061028761047a36600461106d565b610b49565b6008805461048c906110d4565b80601f01602080910402602001604051908101604052809291908181526020018280546104b8906110d4565b80156105055780601f106104da57610100808354040283529160200191610505565b820191906000526020600020905b8154815290600101906020018083116104e857829003601f168201915b505050505081565b60606003805461051c906110d4565b80601f0160208091040260200160405190810160405280929190818152602001828054610548906110d4565b80156105955780601f1061056a57610100808354040283529160200191610595565b820191906000526020600020905b81548152906001019060200180831161057857829003601f168201915b5050505050905090565b606080606080600080600760086009600a600b54600c548580546105c2906110d4565b80601f01602080910402602001604051908101604052809291908181526020018280546105ee906110d4565b801561063b5780601f106106105761010080835404028352916020019161063b565b820191906000526020600020905b81548152906001019060200180831161061e57829003601f168201915b5050505050955084805461064e906110d4565b80601f016020809104026020016040519081016040528092919081815260200182805461067a906110d4565b80156106c75780601f1061069c576101008083540402835291602001916106c7565b820191906000526020600020905b8154815290600101906020018083116106aa57829003601f168201915b505050505094508380546106da906110d4565b80601f0160208091040260200160405190810160405280929190818152602001828054610706906110d4565b80156107535780601f1061072857610100808354040283529160200191610753565b820191906000526020600020905b81548152906001019060200180831161073657829003601f168201915b50505050509350828054610766906110d4565b80601f0160208091040260200160405190810160405280929190818152602001828054610792906110d4565b80156107df5780601f106107b4576101008083540402835291602001916107df565b820191906000526020600020905b8154815290600101906020018083116107c257829003601f168201915b50505050509250955095509550955095509550909192939495565b600033610808818585610b84565b60019150505b92915050565b600033610822858285610b96565b61082d858585610c15565b506001949350505050565b6007805461048c906110d4565b61084d610c74565b6005546040516001600160a01b03909116904780156108fc02916000818181858888f19350505050158015610886573d6000803e3d6000fd5b50565b600a805461048c906110d4565b6009805461048c906110d4565b6108ab610c74565b600034116108f55760405162461bcd60e51b81526020600482015260126024820152714e6f20686172766573742072657475726e7360701b60448201526064015b60405180910390fd5b6040513481527f3c62f024362fa897ebc89aaa2cf3aefa1f6184f2733aabf1b1f90c690d7548ac9060200160405180910390a1565b610932610c74565b61093c6000610ca1565b565b6000811161099a5760405162461bcd60e51b815260206004820152602360248201527f546f6b656e20616d6f756e74206d75737420626520677265617465722074686160448201526206e20360ec1b60648201526084016108ec565b6006546109a79082611124565b3410156109ed5760405162461bcd60e51b8152602060048201526014602482015273125b9cdd59999a58da595b9d081c185e5b595b9d60621b60448201526064016108ec565b7f000000000000000000000000000000000000000000000000000000000000000081610a1860025490565b610a22919061113b565b1115610a655760405162461bcd60e51b815260206004820152601260248201527145786365656473206d617820737570706c7960701b60448201526064016108ec565b336000908152600d602052604081208054349290610a8490849061113b565b90915550610a9490503382610cf3565b604080513481526020810183905233917f8fafebcaf9d154343dad25669bfa277f4fbacd7ac6b0c4fed522580e040a0f33910160405180910390a2600654610adc9082611124565b3411156108865760065433906108fc90610af69084611124565b610b00903461114e565b6040518115909202916000818181858888f19350505050158015610b28573d6000803e3d6000fd5b5050565b60606004805461051c906110d4565b600033610808818585610c15565b610b51610c74565b6001600160a01b038116610b7b57604051631e4fbdf760e01b8152600060048201526024016108ec565b61088681610ca1565b610b918383836001610d29565b505050565b6001600160a01b03838116600090815260016020908152604080832093861683529290522054600019811015610c0f5781811015610c0057604051637dc7a0d960e11b81526001600160a01b038416600482015260248101829052604481018390526064016108ec565b610c0f84848484036000610d29565b50505050565b6001600160a01b038316610c3f57604051634b637e8f60e11b8152600060048201526024016108ec565b6001600160a01b038216610c695760405163ec442f0560e01b8152600060048201526024016108ec565b610b91838383610dfe565b6005546001600160a01b0316331461093c5760405163118cdaa760e01b81523360048201526024016108ec565b600580546001600160a01b038381166001600160a01b0319831681179093556040519116919082907f8be0079c531659141344cd1fd0a4f28419497f9722a3daafe3b4186f6b6457e090600090a35050565b6001600160a01b038216610d1d5760405163ec442f0560e01b8152600060048201526024016108ec565b610b2860008383610dfe565b6001600160a01b038416610d535760405163e602df0560e01b8152600060048201526024016108ec565b6001600160a01b038316610d7d57604051634a1406b160e11b8152600060048201526024016108ec565b6001600160a01b0380851660009081526001602090815260408083209387168352929052208290558015610c0f57826001600160a01b0316846001600160a01b03167f8c5be1e5ebec7d5bd14f71427d1e84f3dd0314c0f7b2291e5b200ac8c7c3b92584604051610df091815260200190565b60405180910390a350505050565b6001600160a01b038316610e29578060026000828254610e1e919061113b565b90915550610e9b9050565b6001600160a01b03831660009081526020819052604090205481811015610e7c5760405163391434e360e21b81526001600160a01b038516600482015260248101829052604481018390526064016108ec565b6001600160a01b03841660009081526020819052604090209082900390555b6001600160a01b038216610eb757600280548290039055610ed6565b6001600160a01b03821660009081526020819052604090208054820190555b816001600160a01b0316836001600160a01b03167fddf252ad1be2c89b69c2b068fc378daa952ba7f163c4a11628f55a4df523b3ef83604051610f1b91815260200190565b60405180910390a3505050565b6000815180845260005b81811015610f4e57602081850181015186830182015201610f32565b506000602082860101526020601f19601f83011685010191505092915050565b602081526000610f816020830184610f28565b9392505050565b60c081526000610f9b60c0830189610f28565b8281036020840152610fad8189610f28565b90508281036040840152610fc18188610f28565b90508281036060840152610fd58187610f28565b6080840195909552505060a00152949350505050565b80356001600160a01b038116811461100257600080fd5b919050565b6000806040838503121561101a57600080fd5b61102383610feb565b946020939093013593505050565b60008060006060848603121561104657600080fd5b61104f84610feb565b925061105d60208501610feb565b9150604084013590509250925092565b60006020828403121561107f57600080fd5b610f8182610feb565b60006020828403121561109a57600080fd5b5035919050565b600080604083850312156110b457600080fd5b6110bd83610feb565b91506110cb60208401610feb565b90509250929050565b600181811c908216806110e857607f821691505b60208210810361110857634e487b7160e01b600052602260045260246000fd5b50919050565b634e487b7160e01b600052601160045260246000fd5b808202811582820484141761080e5761080e61110e565b8082018082111561080e5761080e61110e565b8181038181111561080e5761080e61110e56fea26469706673582212209142df12581e6d7129d3fc07ab2ddd35001fa683090c98dc55dc3918ecf6bcaa64736f6c63430008140033a2646970667358221220b6d6bfad816cc8ea0467a03eeb7f56523943fa0d6633890cadb2100a38dd37a764736f6c63430008140033","opcodes":"PUSH1 0x80 PUSH1 0x40 MSTORE CALLVALUE DUP1 ISZERO PUSH2 0x10 JUMPI PUSH1 0x0 DUP1 REVERT JUMPDEST POP CALLER DUP1 PUSH2 0x37 JUMPI PUSH1 0x40 MLOAD PUSH4 0x1E4FBDF7 PUSH1 0xE0 SHL DUP2 MSTORE PUSH1 0x0 PUSH1 0x4 DUP3 ADD MSTORE PUSH1 0x24 ADD PUSH1 0x40 MLOAD DUP1 SWAP2 SUB SWAP1 REVERT JUMPDEST PUSH2 0x40 DUP2 PUSH2 0x46 JUMP JUMPDEST POP PUSH2 0x96 JUMP JUMPDEST PUSH1 0x0 DUP1 SLOAD PUSH1 0x1 PUSH1 0x1 PUSH1 0xA0 SHL SUB DUP4 DUP2 AND PUSH1 0x1 PUSH1 0x1 PUSH1 0xA0 SHL SUB NOT DUP4 AND DUP2 OR DUP5 SSTORE PUSH1 0x40 MLOAD SWAP2 SWAP1 SWAP3 AND SWAP3 DUP4 SWAP2 PUSH32 0x8BE0079C531659141344CD1FD0A4F28419497F9722A3DAAFE3B4186F6B6457E0 SWAP2 SWAP1 LOG3 POP POP JUMP JUMPDEST PUSH2 0x2D6F DUP1 PUSH2 0xA5 PUSH1 0x0 CODECOPY PUSH1 0x0 RETURN INVALID PUSH1 0x80 PUSH1 0x40 MSTORE CALLVALUE DUP1 ISZERO PUSH3 0x11 JUMPI PUSH1 0x0 DUP1 REVERT JUMPDEST POP PUSH1 0x4 CALLDATASIZE LT PUSH3 0xB7 JUMPI PUSH1 0x0 CALLDATALOAD PUSH1 0xE0 SHR DUP1 PUSH4 0x715018A6 GT PUSH3 0x7A JUMPI DUP1 PUSH4 0x715018A6 EQ PUSH3 0x164 JUMPI DUP1 PUSH4 0x8DA5CB5B EQ PUSH3 0x16E JUMPI DUP1 PUSH4 0xAC9F1276 EQ PUSH3 0x18A JUMPI DUP1 PUSH4 0xC374F057 EQ PUSH3 0x1B8 JUMPI DUP1 PUSH4 0xF2FDE38B EQ PUSH3 0x1DE JUMPI DUP1 PUSH4 0xF9559774 EQ PUSH3 0x1F5 JUMPI PUSH1 0x0 DUP1 REVERT JUMPDEST DUP1 PUSH4 0x2A67116 EQ PUSH3 0xBC JUMPI DUP1 PUSH4 0x2C133DAC EQ PUSH3 0xD5 JUMPI DUP1 PUSH4 0x448C95F2 EQ PUSH3 0x110 JUMPI DUP1 PUSH4 0x4B3CC6E5 EQ PUSH3 0x127 JUMPI DUP1 PUSH4 0x4B87ECAE EQ PUSH3 0x13E JUMPI JUMPDEST PUSH1 0x0 DUP1 REVERT JUMPDEST PUSH3 0xD3 PUSH3 0xCD CALLDATASIZE PUSH1 0x4 PUSH3 0xFB9 JUMP JUMPDEST PUSH3 0x20E JUMP JUMPDEST STOP JUMPDEST PUSH3 0xFB PUSH3 0xE6 CALLDATASIZE PUSH1 0x4 PUSH3 0x105D JUMP JUMPDEST PUSH1 0x2 PUSH1 0x20 MSTORE PUSH1 0x0 SWAP1 DUP2 MSTORE PUSH1 0x40 SWAP1 KECCAK256 SLOAD PUSH1 0xFF AND DUP2 JUMP JUMPDEST PUSH1 0x40 MLOAD SWAP1 ISZERO ISZERO DUP2 MSTORE PUSH1 0x20 ADD JUMPDEST PUSH1 0x40 MLOAD DUP1 SWAP2 SUB SWAP1 RETURN JUMPDEST PUSH3 0xD3 PUSH3 0x121 CALLDATASIZE PUSH1 0x4 PUSH3 0x108F JUMP JUMPDEST PUSH3 0x382 JUMP JUMPDEST PUSH3 0xD3 PUSH3 0x138 CALLDATASIZE PUSH1 0x4 PUSH3 0x105D JUMP JUMPDEST PUSH3 0x60E JUMP JUMPDEST PUSH3 0x155 PUSH3 0x14F CALLDATASIZE PUSH1 0x4 PUSH3 0x115B JUMP JUMPDEST PUSH3 0x664 JUMP JUMPDEST PUSH1 0x40 MLOAD PUSH3 0x107 SWAP2 SWAP1 PUSH3 0x1229 JUMP JUMPDEST PUSH3 0xD3 PUSH3 0x976 JUMP JUMPDEST PUSH1 0x0 SLOAD PUSH1 0x40 MLOAD PUSH1 0x1 PUSH1 0x1 PUSH1 0xA0 SHL SUB SWAP1 SWAP2 AND DUP2 MSTORE PUSH1 0x20 ADD PUSH3 0x107 JUMP JUMPDEST PUSH3 0x1A1 PUSH3 0x19B CALLDATASIZE PUSH1 0x4 PUSH3 0x115B JUMP JUMPDEST PUSH3 0x98E JUMP JUMPDEST PUSH1 0x40 MLOAD PUSH3 0x107 SWAP10 SWAP9 SWAP8 SWAP7 SWAP6 SWAP5 SWAP4 SWAP3 SWAP2 SWAP1 PUSH3 0x130E JUMP JUMPDEST PUSH3 0x1CF PUSH3 0x1C9 CALLDATASIZE PUSH1 0x4 PUSH3 0x13AC JUMP JUMPDEST PUSH3 0xC33 JUMP JUMPDEST PUSH1 0x40 MLOAD PUSH3 0x107 SWAP2 SWAP1 PUSH3 0x13C6 JUMP JUMPDEST PUSH3 0xD3 PUSH3 0x1EF CALLDATASIZE PUSH1 0x4 PUSH3 0x105D JUMP JUMPDEST PUSH3 0xCE8 JUMP JUMPDEST PUSH3 0x1FF PUSH3 0xD2C JUMP JUMPDEST PUSH1 0x40 MLOAD PUSH3 0x107 SWAP2 SWAP1 PUSH3 0x13DB JUMP JUMPDEST PUSH3 0x218 PUSH3 0xE0F JUMP JUMPDEST PUSH1 0x0 PUSH1 0x1 DUP7 PUSH1 0x40 MLOAD PUSH3 0x22C SWAP2 SWAP1 PUSH3 0x1441 JUMP JUMPDEST SWAP1 DUP2 MSTORE PUSH1 0x40 MLOAD SWAP1 DUP2 SWAP1 SUB PUSH1 0x20 ADD SWAP1 KECCAK256 SWAP1 POP PUSH1 0x0 PUSH1 0x7 DUP3 ADD SLOAD PUSH1 0xFF AND PUSH1 0x4 DUP2 GT ISZERO PUSH3 0x25B JUMPI PUSH3 0x25B PUSH3 0x11F0 JUMP JUMPDEST EQ PUSH3 0x29C JUMPI PUSH1 0x40 MLOAD PUSH3 0x461BCD PUSH1 0xE5 SHL DUP2 MSTORE PUSH1 0x20 PUSH1 0x4 DUP3 ADD MSTORE PUSH1 0xB PUSH1 0x24 DUP3 ADD MSTORE PUSH11 0x4E6F742070656E64696E67 PUSH1 0xA8 SHL PUSH1 0x44 DUP3 ADD MSTORE PUSH1 0x64 ADD JUMPDEST PUSH1 0x40 MLOAD DUP1 SWAP2 SUB SWAP1 REVERT JUMPDEST PUSH1 0x0 DUP6 DUP6 DUP5 DUP7 DUP11 DUP7 PUSH1 0x1 ADD DUP8 PUSH1 0x2 ADD DUP9 PUSH1 0x3 ADD DUP10 PUSH1 0x6 ADD SLOAD PUSH1 0x0 PUSH1 0x40 MLOAD PUSH3 0x2C4 SWAP1 PUSH3 0xE8E JUMP JUMPDEST PUSH3 0x2D9 SWAP11 SWAP10 SWAP9 SWAP8 SWAP7 SWAP6 SWAP5 SWAP4 SWAP3 SWAP2 SWAP1 PUSH3 0x1520 JUMP JUMPDEST PUSH1 0x40 MLOAD DUP1 SWAP2 SUB SWAP1 PUSH1 0x0 CREATE DUP1 ISZERO DUP1 ISZERO PUSH3 0x2F6 JUMPI RETURNDATASIZE PUSH1 0x0 DUP1 RETURNDATACOPY RETURNDATASIZE PUSH1 0x0 REVERT JUMPDEST POP PUSH1 0x5 DUP4 ADD DUP1 SLOAD PUSH1 0x1 PUSH1 0x1 PUSH1 0xA0 SHL SUB NOT AND PUSH1 0x1 PUSH1 0x1 PUSH1 0xA0 SHL SUB DUP4 AND OR SWAP1 SSTORE PUSH1 0x7 DUP4 ADD DUP1 SLOAD PUSH1 0xFF NOT AND PUSH1 0x1 OR SWAP1 SSTORE PUSH1 0x40 MLOAD SWAP1 SWAP2 POP PUSH3 0x336 SWAP1 DUP9 SWAP1 PUSH3 0x1441 JUMP JUMPDEST PUSH1 0x40 MLOAD SWAP1 DUP2 SWAP1 SUB DUP2 KECCAK256 PUSH1 0x1 PUSH1 0x1 PUSH1 0xA0 SHL SUB DUP4 AND DUP3 MSTORE SWAP1 PUSH32 0x4B5D1BCB296EF4C6E504C0F1849A5B9C047B99D50305918F8E76438F05A49D1C SWAP1 PUSH1 0x20 ADD PUSH1 0x40 MLOAD DUP1 SWAP2 SUB SWAP1 LOG2 POP POP POP POP POP POP POP JUMP JUMPDEST CALLER PUSH1 0x0 SWAP1 DUP2 MSTORE PUSH1 0x2 PUSH1 0x20 MSTORE PUSH1 0x40 SWAP1 KECCAK256 SLOAD PUSH1 0xFF AND PUSH3 0x3D9 JUMPI PUSH1 0x40 MLOAD PUSH3 0x461BCD PUSH1 0xE5 SHL DUP2 MSTORE PUSH1 0x20 PUSH1 0x4 DUP3 ADD MSTORE PUSH1 0x13 PUSH1 0x24 DUP3 ADD MSTORE PUSH19 0x2737BA1030B8383937BB32B2103330B936B2B9 PUSH1 0x69 SHL PUSH1 0x44 DUP3 ADD MSTORE PUSH1 0x64 ADD PUSH3 0x293 JUMP JUMPDEST PUSH1 0x1 DUP7 PUSH1 0x40 MLOAD PUSH3 0x3EB SWAP2 SWAP1 PUSH3 0x1441 JUMP JUMPDEST SWAP1 DUP2 MSTORE PUSH1 0x40 MLOAD SWAP1 DUP2 SWAP1 SUB PUSH1 0x20 ADD SWAP1 KECCAK256 DUP1 SLOAD PUSH3 0x407 SWAP1 PUSH3 0x145F JUMP JUMPDEST ISZERO SWAP1 POP PUSH3 0x446 JUMPI PUSH1 0x40 MLOAD PUSH3 0x461BCD PUSH1 0xE5 SHL DUP2 MSTORE PUSH1 0x20 PUSH1 0x4 DUP3 ADD MSTORE PUSH1 0xB PUSH1 0x24 DUP3 ADD MSTORE PUSH11 0x4661726D20657869737473 PUSH1 0xA8 SHL PUSH1 0x44 DUP3 ADD MSTORE PUSH1 0x64 ADD PUSH3 0x293 JUMP JUMPDEST PUSH1 0x40 DUP1 MLOAD PUSH2 0x120 DUP2 ADD DUP3 MSTORE DUP8 DUP2 MSTORE PUSH1 0x20 DUP2 ADD DUP8 SWAP1 MSTORE DUP1 DUP3 ADD DUP7 SWAP1 MSTORE PUSH1 0x60 DUP2 ADD DUP6 SWAP1 MSTORE CALLER PUSH1 0x80 DUP3 ADD MSTORE PUSH1 0x0 PUSH1 0xA0 DUP3 ADD DUP2 SWAP1 MSTORE PUSH1 0xC0 DUP3 ADD DUP6 SWAP1 MSTORE PUSH1 0xE0 DUP3 ADD MSTORE TIMESTAMP PUSH2 0x100 DUP3 ADD MSTORE SWAP1 MLOAD PUSH1 0x1 SWAP1 PUSH3 0x49C SWAP1 DUP10 SWAP1 PUSH3 0x1441 JUMP JUMPDEST SWAP1 DUP2 MSTORE PUSH1 0x40 MLOAD SWAP1 DUP2 SWAP1 SUB PUSH1 0x20 ADD SWAP1 KECCAK256 DUP2 MLOAD DUP2 SWAP1 PUSH3 0x4BB SWAP1 DUP3 PUSH3 0x161F JUMP JUMPDEST POP PUSH1 0x20 DUP3 ADD MLOAD PUSH1 0x1 DUP3 ADD SWAP1 PUSH3 0x4D2 SWAP1 DUP3 PUSH3 0x161F JUMP JUMPDEST POP PUSH1 0x40 DUP3 ADD MLOAD PUSH1 0x2 DUP3 ADD SWAP1 PUSH3 0x4E9 SWAP1 DUP3 PUSH3 0x161F JUMP JUMPDEST POP PUSH1 0x60 DUP3 ADD MLOAD PUSH1 0x3 DUP3 ADD SWAP1 PUSH3 0x500 SWAP1 DUP3 PUSH3 0x161F JUMP JUMPDEST POP PUSH1 0x80 DUP3 ADD MLOAD PUSH1 0x4 DUP1 DUP4 ADD DUP1 SLOAD PUSH1 0x1 PUSH1 0x1 PUSH1 0xA0 SHL SUB SWAP4 DUP5 AND PUSH1 0x1 PUSH1 0x1 PUSH1 0xA0 SHL SUB NOT SWAP2 DUP3 AND OR SWAP1 SWAP2 SSTORE PUSH1 0xA0 DUP6 ADD MLOAD PUSH1 0x5 DUP6 ADD DUP1 SLOAD SWAP2 SWAP1 SWAP5 AND SWAP2 AND OR SWAP1 SWAP2 SSTORE PUSH1 0xC0 DUP4 ADD MLOAD PUSH1 0x6 DUP4 ADD SSTORE PUSH1 0xE0 DUP4 ADD MLOAD PUSH1 0x7 DUP4 ADD DUP1 SLOAD SWAP2 SWAP3 SWAP1 SWAP2 PUSH1 0xFF NOT AND SWAP1 PUSH1 0x1 SWAP1 DUP5 SWAP1 DUP2 GT ISZERO PUSH3 0x572 JUMPI PUSH3 0x572 PUSH3 0x11F0 JUMP JUMPDEST MUL OR SWAP1 SSTORE POP PUSH2 0x100 SWAP2 SWAP1 SWAP2 ADD MLOAD PUSH1 0x8 SWAP1 SWAP2 ADD SSTORE PUSH1 0x3 DUP1 SLOAD PUSH1 0x1 DUP2 ADD DUP3 SSTORE PUSH1 0x0 SWAP2 SWAP1 SWAP2 MSTORE PUSH32 0xC2575A0E9E593C00F959F8C92F12DB2869C3395A3B0502D05E2516446F71F85B ADD PUSH3 0x5C3 DUP8 DUP3 PUSH3 0x161F JUMP JUMPDEST POP PUSH1 0x40 MLOAD CALLER SWAP1 PUSH3 0x5D6 SWAP1 DUP9 SWAP1 PUSH3 0x1441 JUMP JUMPDEST PUSH1 0x40 MLOAD SWAP1 DUP2 SWAP1 SUB DUP2 KECCAK256 SWAP1 PUSH32 0x54C0E5FCC6078CCE5BF275E6569132E9BFB374D77DF38DB95ADCE71F95C3656B SWAP1 PUSH1 0x0 SWAP1 LOG3 POP POP POP POP POP POP JUMP JUMPDEST PUSH3 0x618 PUSH3 0xE0F JUMP JUMPDEST PUSH1 0x1 PUSH1 0x1 PUSH1 0xA0 SHL SUB DUP2 AND PUSH1 0x0 DUP2 DUP2 MSTORE PUSH1 0x2 PUSH1 0x20 MSTORE PUSH1 0x40 DUP1 DUP3 KECCAK256 DUP1 SLOAD PUSH1 0xFF NOT AND PUSH1 0x1 OR SWAP1 SSTORE MLOAD PUSH32 0x3547BCA6E79A5BE28978B935492502BBBC9E6DCF031636DE11DFCE9D1F27997B SWAP2 SWAP1 LOG2 POP JUMP JUMPDEST PUSH3 0x66E PUSH3 0xE9C JUMP JUMPDEST PUSH1 0x1 DUP3 PUSH1 0x40 MLOAD PUSH3 0x680 SWAP2 SWAP1 PUSH3 0x1441 JUMP JUMPDEST SWAP1 DUP2 MSTORE PUSH1 0x20 ADD PUSH1 0x40 MLOAD DUP1 SWAP2 SUB SWAP1 KECCAK256 PUSH1 0x40 MLOAD DUP1 PUSH2 0x120 ADD PUSH1 0x40 MSTORE SWAP1 DUP2 PUSH1 0x0 DUP3 ADD DUP1 SLOAD PUSH3 0x6AC SWAP1 PUSH3 0x145F JUMP JUMPDEST DUP1 PUSH1 0x1F ADD PUSH1 0x20 DUP1 SWAP2 DIV MUL PUSH1 0x20 ADD PUSH1 0x40 MLOAD SWAP1 DUP2 ADD PUSH1 0x40 MSTORE DUP1 SWAP3 SWAP2 SWAP1 DUP2 DUP2 MSTORE PUSH1 0x20 ADD DUP3 DUP1 SLOAD PUSH3 0x6DA SWAP1 PUSH3 0x145F JUMP JUMPDEST DUP1 ISZERO PUSH3 0x72B JUMPI DUP1 PUSH1 0x1F LT PUSH3 0x6FF JUMPI PUSH2 0x100 DUP1 DUP4 SLOAD DIV MUL DUP4 MSTORE SWAP2 PUSH1 0x20 ADD SWAP2 PUSH3 0x72B JUMP JUMPDEST DUP3 ADD SWAP2 SWAP1 PUSH1 0x0 MSTORE PUSH1 0x20 PUSH1 0x0 KECCAK256 SWAP1 JUMPDEST DUP2 SLOAD DUP2 MSTORE SWAP1 PUSH1 0x1 ADD SWAP1 PUSH1 0x20 ADD DUP1 DUP4 GT PUSH3 0x70D JUMPI DUP3 SWAP1 SUB PUSH1 0x1F AND DUP3 ADD SWAP2 JUMPDEST POP POP POP POP POP DUP2 MSTORE PUSH1 0x20 ADD PUSH1 0x1 DUP3 ADD DUP1 SLOAD PUSH3 0x746 SWAP1 PUSH3 0x145F JUMP JUMPDEST DUP1 PUSH1 0x1F ADD PUSH1 0x20 DUP1 SWAP2 DIV MUL PUSH1 0x20 ADD PUSH1 0x40 MLOAD SWAP1 DUP2 ADD PUSH1 0x40 MSTORE DUP1 SWAP3 SWAP2 SWAP1 DUP2 DUP2 MSTORE PUSH1 0x20 ADD DUP3 DUP1 SLOAD PUSH3 0x774 SWAP1 PUSH3 0x145F JUMP JUMPDEST DUP1 ISZERO PUSH3 0x7C5 JUMPI DUP1 PUSH1 0x1F LT PUSH3 0x799 JUMPI PUSH2 0x100 DUP1 DUP4 SLOAD DIV MUL DUP4 MSTORE SWAP2 PUSH1 0x20 ADD SWAP2 PUSH3 0x7C5 JUMP JUMPDEST DUP3 ADD SWAP2 SWAP1 PUSH1 0x0 MSTORE PUSH1 0x20 PUSH1 0x0 KECCAK256 SWAP1 JUMPDEST DUP2 SLOAD DUP2 MSTORE SWAP1 PUSH1 0x1 ADD SWAP1 PUSH1 0x20 ADD DUP1 DUP4 GT PUSH3 0x7A7 JUMPI DUP3 SWAP1 SUB PUSH1 0x1F AND DUP3 ADD SWAP2 JUMPDEST POP POP POP POP POP DUP2 MSTORE PUSH1 0x20 ADD PUSH1 0x2 DUP3 ADD DUP1 SLOAD PUSH3 0x7E0 SWAP1 PUSH3 0x145F JUMP JUMPDEST DUP1 PUSH1 0x1F ADD PUSH1 0x20 DUP1 SWAP2 DIV MUL PUSH1 0x20 ADD PUSH1 0x40 MLOAD SWAP1 DUP2 ADD PUSH1 0x40 MSTORE DUP1 SWAP3 SWAP2 SWAP1 DUP2 DUP2 MSTORE PUSH1 0x20 ADD DUP3 DUP1 SLOAD PUSH3 0x80E SWAP1 PUSH3 0x145F JUMP JUMPDEST DUP1 ISZERO PUSH3 0x85F JUMPI DUP1 PUSH1 0x1F LT PUSH3 0x833 JUMPI PUSH2 0x100 DUP1 DUP4 SLOAD DIV MUL DUP4 MSTORE SWAP2 PUSH1 0x20 ADD SWAP2 PUSH3 0x85F JUMP JUMPDEST DUP3 ADD SWAP2 SWAP1 PUSH1 0x0 MSTORE PUSH1 0x20 PUSH1 0x0 KECCAK256 SWAP1 JUMPDEST DUP2 SLOAD DUP2 MSTORE SWAP1 PUSH1 0x1 ADD SWAP1 PUSH1 0x20 ADD DUP1 DUP4 GT PUSH3 0x841 JUMPI DUP3 SWAP1 SUB PUSH1 0x1F AND DUP3 ADD SWAP2 JUMPDEST POP POP POP POP POP DUP2 MSTORE PUSH1 0x20 ADD PUSH1 0x3 DUP3 ADD DUP1 SLOAD PUSH3 0x87A SWAP1 PUSH3 0x145F JUMP JUMPDEST DUP1 PUSH1 0x1F ADD PUSH1 0x20 DUP1 SWAP2 DIV MUL PUSH1 0x20 ADD PUSH1 0x40 MLOAD SWAP1 DUP2 ADD PUSH1 0x40 MSTORE DUP1 SWAP3 SWAP2 SWAP1 DUP2 DUP2 MSTORE PUSH1 0x20 ADD DUP3 DUP1 SLOAD PUSH3 0x8A8 SWAP1 PUSH3 0x145F JUMP JUMPDEST DUP1 ISZERO PUSH3 0x8F9 JUMPI DUP1 PUSH1 0x1F LT PUSH3 0x8CD JUMPI PUSH2 0x100 DUP1 DUP4 SLOAD DIV MUL DUP4 MSTORE SWAP2 PUSH1 0x20 ADD SWAP2 PUSH3 0x8F9 JUMP JUMPDEST DUP3 ADD SWAP2 SWAP1 PUSH1 0x0 MSTORE PUSH1 0x20 PUSH1 0x0 KECCAK256 SWAP1 JUMPDEST DUP2 SLOAD DUP2 MSTORE SWAP1 PUSH1 0x1 ADD SWAP1 PUSH1 0x20 ADD DUP1 DUP4 GT PUSH3 0x8DB JUMPI DUP3 SWAP1 SUB PUSH1 0x1F AND DUP3 ADD SWAP2 JUMPDEST POP POP POP SWAP2 DUP4 MSTORE POP POP PUSH1 0x4 DUP3 DUP2 ADD SLOAD PUSH1 0x1 PUSH1 0x1 PUSH1 0xA0 SHL SUB SWAP1 DUP2 AND PUSH1 0x20 DUP5 ADD MSTORE PUSH1 0x5 DUP5 ADD SLOAD AND PUSH1 0x40 DUP4 ADD MSTORE PUSH1 0x6 DUP4 ADD SLOAD PUSH1 0x60 DUP4 ADD MSTORE PUSH1 0x7 DUP4 ADD SLOAD PUSH1 0x80 SWAP1 SWAP3 ADD SWAP2 PUSH1 0xFF AND SWAP1 DUP2 GT ISZERO PUSH3 0x94D JUMPI PUSH3 0x94D PUSH3 0x11F0 JUMP JUMPDEST PUSH1 0x4 DUP2 GT ISZERO PUSH3 0x961 JUMPI PUSH3 0x961 PUSH3 0x11F0 JUMP JUMPDEST DUP2 MSTORE PUSH1 0x20 ADD PUSH1 0x8 DUP3 ADD SLOAD DUP2 MSTORE POP POP SWAP1 POP SWAP2 SWAP1 POP JUMP JUMPDEST PUSH3 0x980 PUSH3 0xE0F JUMP JUMPDEST PUSH3 0x98C PUSH1 0x0 PUSH3 0xE3E JUMP JUMPDEST JUMP JUMPDEST DUP1 MLOAD PUSH1 0x20 DUP2 DUP4 ADD DUP2 ADD DUP1 MLOAD PUSH1 0x1 DUP3 MSTORE SWAP3 DUP3 ADD SWAP2 SWAP1 SWAP4 ADD KECCAK256 SWAP2 MSTORE DUP1 SLOAD DUP2 SWAP1 PUSH3 0x9B6 SWAP1 PUSH3 0x145F JUMP JUMPDEST DUP1 PUSH1 0x1F ADD PUSH1 0x20 DUP1 SWAP2 DIV MUL PUSH1 0x20 ADD PUSH1 0x40 MLOAD SWAP1 DUP2 ADD PUSH1 0x40 MSTORE DUP1 SWAP3 SWAP2 SWAP1 DUP2 DUP2 MSTORE PUSH1 0x20 ADD DUP3 DUP1 SLOAD PUSH3 0x9E4 SWAP1 PUSH3 0x145F JUMP JUMPDEST DUP1 ISZERO PUSH3 0xA35 JUMPI DUP1 PUSH1 0x1F LT PUSH3 0xA09 JUMPI PUSH2 0x100 DUP1 DUP4 SLOAD DIV MUL DUP4 MSTORE SWAP2 PUSH1 0x20 ADD SWAP2 PUSH3 0xA35 JUMP JUMPDEST DUP3 ADD SWAP2 SWAP1 PUSH1 0x0 MSTORE PUSH1 0x20 PUSH1 0x0 KECCAK256 SWAP1 JUMPDEST DUP2 SLOAD DUP2 MSTORE SWAP1 PUSH1 0x1 ADD SWAP1 PUSH1 0x20 ADD DUP1 DUP4 GT PUSH3 0xA17 JUMPI DUP3 SWAP1 SUB PUSH1 0x1F AND DUP3 ADD SWAP2 JUMPDEST POP POP POP POP POP SWAP1 DUP1 PUSH1 0x1 ADD DUP1 SLOAD PUSH3 0xA4C SWAP1 PUSH3 0x145F JUMP JUMPDEST DUP1 PUSH1 0x1F ADD PUSH1 0x20 DUP1 SWAP2 DIV MUL PUSH1 0x20 ADD PUSH1 0x40 MLOAD SWAP1 DUP2 ADD PUSH1 0x40 MSTORE DUP1 SWAP3 SWAP2 SWAP1 DUP2 DUP2 MSTORE PUSH1 0x20 ADD DUP3 DUP1 SLOAD PUSH3 0xA7A SWAP1 PUSH3 0x145F JUMP JUMPDEST DUP1 ISZERO PUSH3 0xACB JUMPI DUP1 PUSH1 0x1F LT PUSH3 0xA9F JUMPI PUSH2 0x100 DUP1 DUP4 SLOAD DIV MUL DUP4 MSTORE SWAP2 PUSH1 0x20 ADD SWAP2 PUSH3 0xACB JUMP JUMPDEST DUP3 ADD SWAP2 SWAP1 PUSH1 0x0 MSTORE PUSH1 0x20 PUSH1 0x0 KECCAK256 SWAP1 JUMPDEST DUP2 SLOAD DUP2 MSTORE SWAP1 PUSH1 0x1 ADD SWAP1 PUSH1 0x20 ADD DUP1 DUP4 GT PUSH3 0xAAD JUMPI DUP3 SWAP1 SUB PUSH1 0x1F AND DUP3 ADD SWAP2 JUMPDEST POP POP POP POP POP SWAP1 DUP1 PUSH1 0x2 ADD DUP1 SLOAD PUSH3 0xAE2 SWAP1 PUSH3 0x145F JUMP JUMPDEST DUP1 PUSH1 0x1F ADD PUSH1 0x20 DUP1 SWAP2 DIV MUL PUSH1 0x20 ADD PUSH1 0x40 MLOAD SWAP1 DUP2 ADD PUSH1 0x40 MSTORE DUP1 SWAP3 SWAP2 SWAP1 DUP2 DUP2 MSTORE PUSH1 0x20 ADD DUP3 DUP1 SLOAD PUSH3 0xB10 SWAP1 PUSH3 0x145F JUMP JUMPDEST DUP1 ISZERO PUSH3 0xB61 JUMPI DUP1 PUSH1 0x1F LT PUSH3 0xB35 JUMPI PUSH2 0x100 DUP1 DUP4 SLOAD DIV MUL DUP4 MSTORE SWAP2 PUSH1 0x20 ADD SWAP2 PUSH3 0xB61 JUMP JUMPDEST DUP3 ADD SWAP2 SWAP1 PUSH1 0x0 MSTORE PUSH1 0x20 PUSH1 0x0 KECCAK256 SWAP1 JUMPDEST DUP2 SLOAD DUP2 MSTORE SWAP1 PUSH1 0x1 ADD SWAP1 PUSH1 0x20 ADD DUP1 DUP4 GT PUSH3 0xB43 JUMPI DUP3 SWAP1 SUB PUSH1 0x1F AND DUP3 ADD SWAP2 JUMPDEST POP POP POP POP POP SWAP1 DUP1 PUSH1 0x3 ADD DUP1 SLOAD PUSH3 0xB78 SWAP1 PUSH3 0x145F JUMP JUMPDEST DUP1 PUSH1 0x1F ADD PUSH1 0x20 DUP1 SWAP2 DIV MUL PUSH1 0x20 ADD PUSH1 0x40 MLOAD SWAP1 DUP2 ADD PUSH1 0x40 MSTORE DUP1 SWAP3 SWAP2 SWAP1 DUP2 DUP2 MSTORE PUSH1 0x20 ADD DUP3 DUP1 SLOAD PUSH3 0xBA6 SWAP1 PUSH3 0x145F JUMP JUMPDEST DUP1 ISZERO PUSH3 0xBF7 JUMPI DUP1 PUSH1 0x1F LT PUSH3 0xBCB JUMPI PUSH2 0x100 DUP1 DUP4 SLOAD DIV MUL DUP4 MSTORE SWAP2 PUSH1 0x20 ADD SWAP2 PUSH3 0xBF7 JUMP JUMPDEST DUP3 ADD SWAP2 SWAP1 PUSH1 0x0 MSTORE PUSH1 0x20 PUSH1 0x0 KECCAK256 SWAP1 JUMPDEST DUP2 SLOAD DUP2 MSTORE SWAP1 PUSH1 0x1 ADD SWAP1 PUSH1 0x20 ADD DUP1 DUP4 GT PUSH3 0xBD9 JUMPI DUP3 SWAP1 SUB PUSH1 0x1F AND DUP3 ADD SWAP2 JUMPDEST POP POP POP PUSH1 0x4 DUP5 ADD SLOAD PUSH1 0x5 DUP6 ADD SLOAD PUSH1 0x6 DUP7 ADD SLOAD PUSH1 0x7 DUP8 ADD SLOAD PUSH1 0x8 SWAP1 SWAP8 ADD SLOAD SWAP6 SWAP7 PUSH1 0x1 PUSH1 0x1 PUSH1 0xA0 SHL SUB SWAP4 DUP5 AND SWAP7 SWAP3 SWAP1 SWAP4 AND SWAP5 POP SWAP3 POP PUSH1 0xFF SWAP1 SWAP2 AND SWAP1 DUP10 JUMP JUMPDEST PUSH1 0x3 DUP2 DUP2 SLOAD DUP2 LT PUSH3 0xC44 JUMPI PUSH1 0x0 DUP1 REVERT JUMPDEST SWAP1 PUSH1 0x0 MSTORE PUSH1 0x20 PUSH1 0x0 KECCAK256 ADD PUSH1 0x0 SWAP2 POP SWAP1 POP DUP1 SLOAD PUSH3 0xC61 SWAP1 PUSH3 0x145F JUMP JUMPDEST DUP1 PUSH1 0x1F ADD PUSH1 0x20 DUP1 SWAP2 DIV MUL PUSH1 0x20 ADD PUSH1 0x40 MLOAD SWAP1 DUP2 ADD PUSH1 0x40 MSTORE DUP1 SWAP3 SWAP2 SWAP1 DUP2 DUP2 MSTORE PUSH1 0x20 ADD DUP3 DUP1 SLOAD PUSH3 0xC8F SWAP1 PUSH3 0x145F JUMP JUMPDEST DUP1 ISZERO PUSH3 0xCE0 JUMPI DUP1 PUSH1 0x1F LT PUSH3 0xCB4 JUMPI PUSH2 0x100 DUP1 DUP4 SLOAD DIV MUL DUP4 MSTORE SWAP2 PUSH1 0x20 ADD SWAP2 PUSH3 0xCE0 JUMP JUMPDEST DUP3 ADD SWAP2 SWAP1 PUSH1 0x0 MSTORE PUSH1 0x20 PUSH1 0x0 KECCAK256 SWAP1 JUMPDEST DUP2 SLOAD DUP2 MSTORE SWAP1 PUSH1 0x1 ADD SWAP1 PUSH1 0x20 ADD DUP1 DUP4 GT PUSH3 0xCC2 JUMPI DUP3 SWAP1 SUB PUSH1 0x1F AND DUP3 ADD SWAP2 JUMPDEST POP POP POP POP POP DUP2 JUMP JUMPDEST PUSH3 0xCF2 PUSH3 0xE0F JUMP JUMPDEST PUSH1 0x1 PUSH1 0x1 PUSH1 0xA0 SHL SUB DUP2 AND PUSH3 0xD1E JUMPI PUSH1 0x40 MLOAD PUSH4 0x1E4FBDF7 PUSH1 0xE0 SHL DUP2 MSTORE PUSH1 0x0 PUSH1 0x4 DUP3 ADD MSTORE PUSH1 0x24 ADD PUSH3 0x293 JUMP JUMPDEST PUSH3 0xD29 DUP2 PUSH3 0xE3E JUMP JUMPDEST POP JUMP JUMPDEST PUSH1 0x60 PUSH1 0x3 DUP1 SLOAD DUP1 PUSH1 0x20 MUL PUSH1 0x20 ADD PUSH1 0x40 MLOAD SWAP1 DUP2 ADD PUSH1 0x40 MSTORE DUP1 SWAP3 SWAP2 SWAP1 DUP2 DUP2 MSTORE PUSH1 0x20 ADD PUSH1 0x0 SWAP1 JUMPDEST DUP3 DUP3 LT ISZERO PUSH3 0xE06 JUMPI DUP4 DUP3 SWAP1 PUSH1 0x0 MSTORE PUSH1 0x20 PUSH1 0x0 KECCAK256 ADD DUP1 SLOAD PUSH3 0xD72 SWAP1 PUSH3 0x145F JUMP JUMPDEST DUP1 PUSH1 0x1F ADD PUSH1 0x20 DUP1 SWAP2 DIV MUL PUSH1 0x20 ADD PUSH1 0x40 MLOAD SWAP1 DUP2 ADD PUSH1 0x40 MSTORE DUP1 SWAP3 SWAP2 SWAP1 DUP2 DUP2 MSTORE PUSH1 0x20 ADD DUP3 DUP1 SLOAD PUSH3 0xDA0 SWAP1 PUSH3 0x145F JUMP JUMPDEST DUP1 ISZERO PUSH3 0xDF1 JUMPI DUP1 PUSH1 0x1F LT PUSH3 0xDC5 JUMPI PUSH2 0x100 DUP1 DUP4 SLOAD DIV MUL DUP4 MSTORE SWAP2 PUSH1 0x20 ADD SWAP2 PUSH3 0xDF1 JUMP JUMPDEST DUP3 ADD SWAP2 SWAP1 PUSH1 0x0 MSTORE PUSH1 0x20 PUSH1 0x0 KECCAK256 SWAP1 JUMPDEST DUP2 SLOAD DUP2 MSTORE SWAP1 PUSH1 0x1 ADD SWAP1 PUSH1 0x20 ADD DUP1 DUP4 GT PUSH3 0xDD3 JUMPI DUP3 SWAP1 SUB PUSH1 0x1F AND DUP3 ADD SWAP2 JUMPDEST POP POP POP POP POP DUP2 MSTORE PUSH1 0x20 ADD SWAP1 PUSH1 0x1 ADD SWAP1 PUSH3 0xD50 JUMP JUMPDEST POP POP POP POP SWAP1 POP SWAP1 JUMP JUMPDEST PUSH1 0x0 SLOAD PUSH1 0x1 PUSH1 0x1 PUSH1 0xA0 SHL SUB AND CALLER EQ PUSH3 0x98C JUMPI PUSH1 0x40 MLOAD PUSH4 0x118CDAA7 PUSH1 0xE0 SHL DUP2 MSTORE CALLER PUSH1 0x4 DUP3 ADD MSTORE PUSH1 0x24 ADD PUSH3 0x293 JUMP JUMPDEST PUSH1 0x0 DUP1 SLOAD PUSH1 0x1 PUSH1 0x1 PUSH1 0xA0 SHL SUB DUP4 DUP2 AND PUSH1 0x1 PUSH1 0x1 PUSH1 0xA0 SHL SUB NOT DUP4 AND DUP2 OR DUP5 SSTORE PUSH1 0x40 MLOAD SWAP2 SWAP1 SWAP3 AND SWAP3 DUP4 SWAP2 PUSH32 0x8BE0079C531659141344CD1FD0A4F28419497F9722A3DAAFE3B4186F6B6457E0 SWAP2 SWAP1 LOG3 POP POP JUMP JUMPDEST PUSH2 0x164D DUP1 PUSH3 0x16ED DUP4 CODECOPY ADD SWAP1 JUMP JUMPDEST PUSH1 0x40 MLOAD DUP1 PUSH2 0x120 ADD PUSH1 0x40 MSTORE DUP1 PUSH1 0x60 DUP2 MSTORE PUSH1 0x20 ADD PUSH1 0x60 DUP2 MSTORE PUSH1 0x20 ADD PUSH1 0x60 DUP2 MSTORE PUSH1 0x20 ADD PUSH1 0x60 DUP2 MSTORE PUSH1 0x20 ADD PUSH1 0x0 PUSH1 0x1 PUSH1 0x1 PUSH1 0xA0 SHL SUB AND DUP2 MSTORE PUSH1 0x20 ADD PUSH1 0x0 PUSH1 0x1 PUSH1 0x1 PUSH1 0xA0 SHL SUB AND DUP2 MSTORE PUSH1 0x20 ADD PUSH1 0x0 DUP2 MSTORE PUSH1 0x20 ADD PUSH1 0x0 PUSH1 0x4 DUP2 GT ISZERO PUSH3 0xF01 JUMPI PUSH3 0xF01 PUSH3 0x11F0 JUMP JUMPDEST DUP2 MSTORE PUSH1 0x20 ADD PUSH1 0x0 DUP2 MSTORE POP SWAP1 JUMP JUMPDEST PUSH4 0x4E487B71 PUSH1 0xE0 SHL PUSH1 0x0 MSTORE PUSH1 0x41 PUSH1 0x4 MSTORE PUSH1 0x24 PUSH1 0x0 REVERT JUMPDEST PUSH1 0x0 DUP3 PUSH1 0x1F DUP4 ADD SLT PUSH3 0xF36 JUMPI PUSH1 0x0 DUP1 REVERT JUMPDEST DUP2 CALLDATALOAD PUSH8 0xFFFFFFFFFFFFFFFF DUP1 DUP3 GT ISZERO PUSH3 0xF54 JUMPI PUSH3 0xF54 PUSH3 0xF0E JUMP JUMPDEST PUSH1 0x40 MLOAD PUSH1 0x1F DUP4 ADD PUSH1 0x1F NOT SWAP1 DUP2 AND PUSH1 0x3F ADD AND DUP2 ADD SWAP1 DUP3 DUP3 GT DUP2 DUP4 LT OR ISZERO PUSH3 0xF7F JUMPI PUSH3 0xF7F PUSH3 0xF0E JUMP JUMPDEST DUP2 PUSH1 0x40 MSTORE DUP4 DUP2 MSTORE DUP7 PUSH1 0x20 DUP6 DUP9 ADD ADD GT ISZERO PUSH3 0xF99 JUMPI PUSH1 0x0 DUP1 REVERT JUMPDEST DUP4 PUSH1 0x20 DUP8 ADD PUSH1 0x20 DUP4 ADD CALLDATACOPY PUSH1 0x0 PUSH1 0x20 DUP6 DUP4 ADD ADD MSTORE DUP1 SWAP5 POP POP POP POP POP SWAP3 SWAP2 POP POP JUMP JUMPDEST PUSH1 0x0 DUP1 PUSH1 0x0 DUP1 PUSH1 0x0 PUSH1 0xA0 DUP7 DUP9 SUB SLT ISZERO PUSH3 0xFD2 JUMPI PUSH1 0x0 DUP1 REVERT JUMPDEST DUP6 CALLDATALOAD PUSH8 0xFFFFFFFFFFFFFFFF DUP1 DUP3 GT ISZERO PUSH3 0xFEB JUMPI PUSH1 0x0 DUP1 REVERT JUMPDEST PUSH3 0xFF9 DUP10 DUP4 DUP11 ADD PUSH3 0xF24 JUMP JUMPDEST SWAP7 POP PUSH1 0x20 DUP9 ADD CALLDATALOAD SWAP2 POP DUP1 DUP3 GT ISZERO PUSH3 0x1010 JUMPI PUSH1 0x0 DUP1 REVERT JUMPDEST PUSH3 0x101E DUP10 DUP4 DUP11 ADD PUSH3 0xF24 JUMP JUMPDEST SWAP6 POP PUSH1 0x40 DUP9 ADD CALLDATALOAD SWAP2 POP DUP1 DUP3 GT ISZERO PUSH3 0x1035 JUMPI PUSH1 0x0 DUP1 REVERT JUMPDEST POP PUSH3 0x1044 DUP9 DUP3 DUP10 ADD PUSH3 0xF24 JUMP JUMPDEST SWAP6 SWAP9 SWAP5 SWAP8 POP SWAP5 SWAP6 PUSH1 0x60 DUP2 ADD CALLDATALOAD SWAP6 POP PUSH1 0x80 ADD CALLDATALOAD SWAP4 SWAP3 POP POP POP JUMP JUMPDEST PUSH1 0x0 PUSH1 0x20 DUP3 DUP5 SUB SLT ISZERO PUSH3 0x1070 JUMPI PUSH1 0x0 DUP1 REVERT JUMPDEST DUP2 CALLDATALOAD PUSH1 0x1 PUSH1 0x1 PUSH1 0xA0 SHL SUB DUP2 AND DUP2 EQ PUSH3 0x1088 JUMPI PUSH1 0x0 DUP1 REVERT JUMPDEST SWAP4 SWAP3 POP POP POP JUMP JUMPDEST PUSH1 0x0 DUP1 PUSH1 0x0 DUP1 PUSH1 0x0 DUP1 PUSH1 0xC0 DUP8 DUP10 SUB SLT ISZERO PUSH3 0x10A9 JUMPI PUSH1 0x0 DUP1 REVERT JUMPDEST DUP7 CALLDATALOAD PUSH8 0xFFFFFFFFFFFFFFFF DUP1 DUP3 GT ISZERO PUSH3 0x10C2 JUMPI PUSH1 0x0 DUP1 REVERT JUMPDEST PUSH3 0x10D0 DUP11 DUP4 DUP12 ADD PUSH3 0xF24 JUMP JUMPDEST SWAP8 POP PUSH1 0x20 DUP10 ADD CALLDATALOAD SWAP2 POP DUP1 DUP3 GT ISZERO PUSH3 0x10E7 JUMPI PUSH1 0x0 DUP1 REVERT JUMPDEST PUSH3 0x10F5 DUP11 DUP4 DUP12 ADD PUSH3 0xF24 JUMP JUMPDEST SWAP7 POP PUSH1 0x40 DUP10 ADD CALLDATALOAD SWAP2 POP DUP1 DUP3 GT ISZERO PUSH3 0x110C JUMPI PUSH1 0x0 DUP1 REVERT JUMPDEST PUSH3 0x111A DUP11 DUP4 DUP12 ADD PUSH3 0xF24 JUMP JUMPDEST SWAP6 POP PUSH1 0x60 DUP10 ADD CALLDATALOAD SWAP2 POP DUP1 DUP3 GT ISZERO PUSH3 0x1131 JUMPI PUSH1 0x0 DUP1 REVERT JUMPDEST POP PUSH3 0x1140 DUP10 DUP3 DUP11 ADD PUSH3 0xF24 JUMP JUMPDEST SWAP4 POP POP PUSH1 0x80 DUP8 ADD CALLDATALOAD SWAP2 POP PUSH1 0xA0 DUP8 ADD CALLDATALOAD SWAP1 POP SWAP3 SWAP6 POP SWAP3 SWAP6 POP SWAP3 SWAP6 JUMP JUMPDEST PUSH1 0x0 PUSH1 0x20 DUP3 DUP5 SUB SLT ISZERO PUSH3 0x116E JUMPI PUSH1 0x0 DUP1 REVERT JUMPDEST DUP2 CALLDATALOAD PUSH8 0xFFFFFFFFFFFFFFFF DUP2 GT ISZERO PUSH3 0x1186 JUMPI PUSH1 0x0 DUP1 REVERT JUMPDEST PUSH3 0x1194 DUP5 DUP3 DUP6 ADD PUSH3 0xF24 JUMP JUMPDEST SWAP5 SWAP4 POP POP POP POP JUMP JUMPDEST PUSH1 0x0 JUMPDEST DUP4 DUP2 LT ISZERO PUSH3 0x11B9 JUMPI DUP2 DUP2 ADD MLOAD DUP4 DUP3 ADD MSTORE PUSH1 0x20 ADD PUSH3 0x119F JUMP JUMPDEST POP POP PUSH1 0x0 SWAP2 ADD MSTORE JUMP JUMPDEST PUSH1 0x0 DUP2 MLOAD DUP1 DUP5 MSTORE PUSH3 0x11DC DUP2 PUSH1 0x20 DUP7 ADD PUSH1 0x20 DUP7 ADD PUSH3 0x119C JUMP JUMPDEST PUSH1 0x1F ADD PUSH1 0x1F NOT AND SWAP3 SWAP1 SWAP3 ADD PUSH1 0x20 ADD SWAP3 SWAP2 POP POP JUMP JUMPDEST PUSH4 0x4E487B71 PUSH1 0xE0 SHL PUSH1 0x0 MSTORE PUSH1 0x21 PUSH1 0x4 MSTORE PUSH1 0x24 PUSH1 0x0 REVERT JUMPDEST PUSH1 0x5 DUP2 LT PUSH3 0x1225 JUMPI PUSH4 0x4E487B71 PUSH1 0xE0 SHL PUSH1 0x0 MSTORE PUSH1 0x21 PUSH1 0x4 MSTORE PUSH1 0x24 PUSH1 0x0 REVERT JUMPDEST SWAP1 MSTORE JUMP JUMPDEST PUSH1 0x20 DUP2 MSTORE PUSH1 0x0 DUP3 MLOAD PUSH2 0x120 DUP1 PUSH1 0x20 DUP6 ADD MSTORE PUSH3 0x124A PUSH2 0x140 DUP6 ADD DUP4 PUSH3 0x11C2 JUMP JUMPDEST SWAP2 POP PUSH1 0x20 DUP6 ADD MLOAD PUSH1 0x1F NOT DUP1 DUP7 DUP6 SUB ADD PUSH1 0x40 DUP8 ADD MSTORE PUSH3 0x126A DUP5 DUP4 PUSH3 0x11C2 JUMP JUMPDEST SWAP4 POP PUSH1 0x40 DUP8 ADD MLOAD SWAP2 POP DUP1 DUP7 DUP6 SUB ADD PUSH1 0x60 DUP8 ADD MSTORE PUSH3 0x1289 DUP5 DUP4 PUSH3 0x11C2 JUMP JUMPDEST SWAP4 POP PUSH1 0x60 DUP8 ADD MLOAD SWAP2 POP DUP1 DUP7 DUP6 SUB ADD PUSH1 0x80 DUP8 ADD MSTORE POP PUSH3 0x12A9 DUP4 DUP3 PUSH3 0x11C2 JUMP JUMPDEST SWAP3 POP POP PUSH1 0x80 DUP6 ADD MLOAD PUSH3 0x12C7 PUSH1 0xA0 DUP7 ADD DUP3 PUSH1 0x1 PUSH1 0x1 PUSH1 0xA0 SHL SUB AND SWAP1 MSTORE JUMP JUMPDEST POP PUSH1 0xA0 DUP6 ADD MLOAD PUSH1 0x1 PUSH1 0x1 PUSH1 0xA0 SHL SUB DUP2 AND PUSH1 0xC0 DUP7 ADD MSTORE POP PUSH1 0xC0 DUP6 ADD MLOAD PUSH1 0xE0 DUP6 ADD MSTORE PUSH1 0xE0 DUP6 ADD MLOAD PUSH2 0x100 PUSH3 0x12FD DUP2 DUP8 ADD DUP4 PUSH3 0x1206 JUMP JUMPDEST SWAP6 SWAP1 SWAP6 ADD MLOAD SWAP4 ADD SWAP3 SWAP1 SWAP3 MSTORE POP SWAP2 SWAP1 POP JUMP JUMPDEST PUSH1 0x0 PUSH2 0x120 DUP1 DUP4 MSTORE PUSH3 0x1324 DUP2 DUP5 ADD DUP14 PUSH3 0x11C2 JUMP JUMPDEST SWAP1 POP DUP3 DUP2 SUB PUSH1 0x20 DUP5 ADD MSTORE PUSH3 0x133A DUP2 DUP13 PUSH3 0x11C2 JUMP JUMPDEST SWAP1 POP DUP3 DUP2 SUB PUSH1 0x40 DUP5 ADD MSTORE PUSH3 0x1350 DUP2 DUP12 PUSH3 0x11C2 JUMP JUMPDEST SWAP1 POP DUP3 DUP2 SUB PUSH1 0x60 DUP5 ADD MSTORE PUSH3 0x1366 DUP2 DUP11 PUSH3 0x11C2 JUMP JUMPDEST PUSH1 0x1 PUSH1 0x1 PUSH1 0xA0 SHL SUB DUP10 DUP2 AND PUSH1 0x80 DUP7 ADD MSTORE DUP9 AND PUSH1 0xA0 DUP6 ADD MSTORE PUSH1 0xC0 DUP5 ADD DUP8 SWAP1 MSTORE SWAP2 POP PUSH3 0x1397 SWAP1 POP PUSH1 0xE0 DUP4 ADD DUP6 PUSH3 0x1206 JUMP JUMPDEST DUP3 PUSH2 0x100 DUP4 ADD MSTORE SWAP11 SWAP10 POP POP POP POP POP POP POP POP POP POP JUMP JUMPDEST PUSH1 0x0 PUSH1 0x20 DUP3 DUP5 SUB SLT ISZERO PUSH3 0x13BF JUMPI PUSH1 0x0 DUP1 REVERT JUMPDEST POP CALLDATALOAD SWAP2 SWAP1 POP JUMP JUMPDEST PUSH1 0x20 DUP2 MSTORE PUSH1 0x0 PUSH3 0x1088 PUSH1 0x20 DUP4 ADD DUP5 PUSH3 0x11C2 JUMP JUMPDEST PUSH1 0x0 PUSH1 0x20 DUP1 DUP4 ADD DUP2 DUP5 MSTORE DUP1 DUP6 MLOAD DUP1 DUP4 MSTORE PUSH1 0x40 DUP7 ADD SWAP2 POP PUSH1 0x40 DUP2 PUSH1 0x5 SHL DUP8 ADD ADD SWAP3 POP DUP4 DUP8 ADD PUSH1 0x0 JUMPDEST DUP3 DUP2 LT ISZERO PUSH3 0x1434 JUMPI PUSH1 0x3F NOT DUP9 DUP7 SUB ADD DUP5 MSTORE PUSH3 0x1421 DUP6 DUP4 MLOAD PUSH3 0x11C2 JUMP JUMPDEST SWAP5 POP SWAP3 DUP6 ADD SWAP3 SWAP1 DUP6 ADD SWAP1 PUSH1 0x1 ADD PUSH3 0x1402 JUMP JUMPDEST POP SWAP3 SWAP8 SWAP7 POP POP POP POP POP POP POP JUMP JUMPDEST PUSH1 0x0 DUP3 MLOAD PUSH3 0x1455 DUP2 DUP5 PUSH1 0x20 DUP8 ADD PUSH3 0x119C JUMP JUMPDEST SWAP2 SWAP1 SWAP2 ADD SWAP3 SWAP2 POP POP JUMP JUMPDEST PUSH1 0x1 DUP2 DUP2 SHR SWAP1 DUP3 AND DUP1 PUSH3 0x1474 JUMPI PUSH1 0x7F DUP3 AND SWAP2 POP JUMPDEST PUSH1 0x20 DUP3 LT DUP2 SUB PUSH3 0x1495 JUMPI PUSH4 0x4E487B71 PUSH1 0xE0 SHL PUSH1 0x0 MSTORE PUSH1 0x22 PUSH1 0x4 MSTORE PUSH1 0x24 PUSH1 0x0 REVERT JUMPDEST POP SWAP2 SWAP1 POP JUMP JUMPDEST PUSH1 0x0 DUP2 SLOAD PUSH3 0x14AA DUP2 PUSH3 0x145F JUMP JUMPDEST DUP1 DUP6 MSTORE PUSH1 0x20 PUSH1 0x1 DUP4 DUP2 AND DUP1 ISZERO PUSH3 0x14CA JUMPI PUSH1 0x1 DUP2 EQ PUSH3 0x14E5 JUMPI PUSH3 0x1515 JUMP JUMPDEST PUSH1 0xFF NOT DUP6 AND DUP9 DUP5 ADD MSTORE DUP4 ISZERO ISZERO PUSH1 0x5 SHL DUP9 ADD DUP4 ADD SWAP6 POP PUSH3 0x1515 JUMP JUMPDEST DUP7 PUSH1 0x0 MSTORE DUP3 PUSH1 0x0 KECCAK256 PUSH1 0x0 JUMPDEST DUP6 DUP2 LT ISZERO PUSH3 0x150D JUMPI DUP2 SLOAD DUP11 DUP3 ADD DUP7 ADD MSTORE SWAP1 DUP4 ADD SWAP1 DUP5 ADD PUSH3 0x14F0 JUMP JUMPDEST DUP10 ADD DUP5 ADD SWAP7 POP POP JUMPDEST POP POP POP POP POP SWAP3 SWAP2 POP POP JUMP JUMPDEST PUSH1 0x0 PUSH2 0x140 DUP1 DUP4 MSTORE PUSH3 0x1536 DUP2 DUP5 ADD DUP15 PUSH3 0x11C2 JUMP JUMPDEST SWAP1 POP DUP3 DUP2 SUB PUSH1 0x20 DUP5 ADD MSTORE PUSH3 0x154C DUP2 DUP14 PUSH3 0x11C2 JUMP JUMPDEST SWAP1 POP DUP11 PUSH1 0x40 DUP5 ADD MSTORE DUP10 PUSH1 0x60 DUP5 ADD MSTORE DUP3 DUP2 SUB PUSH1 0x80 DUP5 ADD MSTORE PUSH3 0x156E DUP2 DUP11 PUSH3 0x11C2 JUMP JUMPDEST SWAP1 POP DUP3 DUP2 SUB PUSH1 0xA0 DUP5 ADD MSTORE PUSH3 0x1584 DUP2 DUP10 PUSH3 0x149B JUMP JUMPDEST SWAP1 POP DUP3 DUP2 SUB PUSH1 0xC0 DUP5 ADD MSTORE PUSH3 0x159A DUP2 DUP9 PUSH3 0x149B JUMP JUMPDEST SWAP1 POP DUP3 DUP2 SUB PUSH1 0xE0 DUP5 ADD MSTORE PUSH3 0x15B0 DUP2 DUP8 PUSH3 0x149B JUMP JUMPDEST PUSH2 0x100 DUP5 ADD SWAP6 SWAP1 SWAP6 MSTORE POP POP PUSH2 0x120 ADD MSTORE SWAP9 SWAP8 POP POP POP POP POP POP POP POP JUMP JUMPDEST PUSH1 0x1F DUP3 GT ISZERO PUSH3 0x161A JUMPI PUSH1 0x0 DUP2 DUP2 MSTORE PUSH1 0x20 DUP2 KECCAK256 PUSH1 0x1F DUP6 ADD PUSH1 0x5 SHR DUP2 ADD PUSH1 0x20 DUP7 LT ISZERO PUSH3 0x15F5 JUMPI POP DUP1 JUMPDEST PUSH1 0x1F DUP6 ADD PUSH1 0x5 SHR DUP3 ADD SWAP2 POP JUMPDEST DUP2 DUP2 LT ISZERO PUSH3 0x1616 JUMPI DUP3 DUP2 SSTORE PUSH1 0x1 ADD PUSH3 0x1601 JUMP JUMPDEST POP POP POP JUMPDEST POP POP POP JUMP JUMPDEST DUP2 MLOAD PUSH8 0xFFFFFFFFFFFFFFFF DUP2 GT ISZERO PUSH3 0x163C JUMPI PUSH3 0x163C PUSH3 0xF0E JUMP JUMPDEST PUSH3 0x1654 DUP2 PUSH3 0x164D DUP5 SLOAD PUSH3 0x145F JUMP JUMPDEST DUP5 PUSH3 0x15CC JUMP JUMPDEST PUSH1 0x20 DUP1 PUSH1 0x1F DUP4 GT PUSH1 0x1 DUP2 EQ PUSH3 0x168C JUMPI PUSH1 0x0 DUP5 ISZERO PUSH3 0x1673 JUMPI POP DUP6 DUP4 ADD MLOAD JUMPDEST PUSH1 0x0 NOT PUSH1 0x3 DUP7 SWAP1 SHL SHR NOT AND PUSH1 0x1 DUP6 SWAP1 SHL OR DUP6 SSTORE PUSH3 0x1616 JUMP JUMPDEST PUSH1 0x0 DUP6 DUP2 MSTORE PUSH1 0x20 DUP2 KECCAK256 PUSH1 0x1F NOT DUP7 AND SWAP2 JUMPDEST DUP3 DUP2 LT ISZERO PUSH3 0x16BD JUMPI DUP9 DUP7 ADD MLOAD DUP3 SSTORE SWAP5 DUP5 ADD SWAP5 PUSH1 0x1 SWAP1 SWAP2 ADD SWAP1 DUP5 ADD PUSH3 0x169C JUMP JUMPDEST POP DUP6 DUP3 LT ISZERO PUSH3 0x16DC JUMPI DUP8 DUP6 ADD MLOAD PUSH1 0x0 NOT PUSH1 0x3 DUP9 SWAP1 SHL PUSH1 0xF8 AND SHR NOT AND DUP2 SSTORE JUMPDEST POP POP POP POP POP PUSH1 0x1 SWAP1 DUP2 SHL ADD SWAP1 SSTORE POP JUMP INVALID PUSH1 0xA0 PUSH1 0x40 MSTORE CALLVALUE DUP1 ISZERO PUSH3 0x11 JUMPI PUSH1 0x0 DUP1 REVERT JUMPDEST POP PUSH1 0x40 MLOAD PUSH3 0x164D CODESIZE SUB DUP1 PUSH3 0x164D DUP4 CODECOPY DUP2 ADD PUSH1 0x40 DUP2 SWAP1 MSTORE PUSH3 0x34 SWAP2 PUSH3 0x207 JUMP JUMPDEST CALLER DUP11 DUP11 PUSH1 0x3 PUSH3 0x45 DUP4 DUP3 PUSH3 0x3C7 JUMP JUMPDEST POP PUSH1 0x4 PUSH3 0x54 DUP3 DUP3 PUSH3 0x3C7 JUMP JUMPDEST POP POP POP PUSH1 0x1 PUSH1 0x1 PUSH1 0xA0 SHL SUB DUP2 AND PUSH3 0x86 JUMPI PUSH1 0x40 MLOAD PUSH4 0x1E4FBDF7 PUSH1 0xE0 SHL DUP2 MSTORE PUSH1 0x0 PUSH1 0x4 DUP3 ADD MSTORE PUSH1 0x24 ADD PUSH1 0x40 MLOAD DUP1 SWAP2 SUB SWAP1 REVERT JUMPDEST PUSH3 0x91 DUP2 PUSH3 0xF0 JUMP JUMPDEST POP PUSH1 0x80 DUP9 SWAP1 MSTORE PUSH1 0x6 DUP8 SWAP1 SSTORE PUSH1 0x7 PUSH3 0xAA DUP8 DUP3 PUSH3 0x3C7 JUMP JUMPDEST POP PUSH1 0x8 PUSH3 0xB9 DUP7 DUP3 PUSH3 0x3C7 JUMP JUMPDEST POP PUSH1 0x9 PUSH3 0xC8 DUP6 DUP3 PUSH3 0x3C7 JUMP JUMPDEST POP PUSH1 0xA PUSH3 0xD7 DUP5 DUP3 PUSH3 0x3C7 JUMP JUMPDEST POP PUSH1 0xB SWAP2 SWAP1 SWAP2 SSTORE PUSH1 0xC SSTORE POP PUSH3 0x493 SWAP7 POP POP POP POP POP POP POP JUMP JUMPDEST PUSH1 0x5 DUP1 SLOAD PUSH1 0x1 PUSH1 0x1 PUSH1 0xA0 SHL SUB DUP4 DUP2 AND PUSH1 0x1 PUSH1 0x1 PUSH1 0xA0 SHL SUB NOT DUP4 AND DUP2 OR SWAP1 SWAP4 SSTORE PUSH1 0x40 MLOAD SWAP2 AND SWAP2 SWAP1 DUP3 SWAP1 PUSH32 0x8BE0079C531659141344CD1FD0A4F28419497F9722A3DAAFE3B4186F6B6457E0 SWAP1 PUSH1 0x0 SWAP1 LOG3 POP POP JUMP JUMPDEST PUSH4 0x4E487B71 PUSH1 0xE0 SHL PUSH1 0x0 MSTORE PUSH1 0x41 PUSH1 0x4 MSTORE PUSH1 0x24 PUSH1 0x0 REVERT JUMPDEST PUSH1 0x0 DUP3 PUSH1 0x1F DUP4 ADD SLT PUSH3 0x16A JUMPI PUSH1 0x0 DUP1 REVERT JUMPDEST DUP2 MLOAD PUSH1 0x1 PUSH1 0x1 PUSH1 0x40 SHL SUB DUP1 DUP3 GT ISZERO PUSH3 0x187 JUMPI PUSH3 0x187 PUSH3 0x142 JUMP JUMPDEST PUSH1 0x40 MLOAD PUSH1 0x1F DUP4 ADD PUSH1 0x1F NOT SWAP1 DUP2 AND PUSH1 0x3F ADD AND DUP2 ADD SWAP1 DUP3 DUP3 GT DUP2 DUP4 LT OR ISZERO PUSH3 0x1B2 JUMPI PUSH3 0x1B2 PUSH3 0x142 JUMP JUMPDEST DUP2 PUSH1 0x40 MSTORE DUP4 DUP2 MSTORE PUSH1 0x20 SWAP3 POP DUP7 DUP4 DUP6 DUP9 ADD ADD GT ISZERO PUSH3 0x1CF JUMPI PUSH1 0x0 DUP1 REVERT JUMPDEST PUSH1 0x0 SWAP2 POP JUMPDEST DUP4 DUP3 LT ISZERO PUSH3 0x1F3 JUMPI DUP6 DUP3 ADD DUP4 ADD MLOAD DUP2 DUP4 ADD DUP5 ADD MSTORE SWAP1 DUP3 ADD SWAP1 PUSH3 0x1D4 JUMP JUMPDEST PUSH1 0x0 SWAP4 DUP2 ADD SWAP1 SWAP3 ADD SWAP3 SWAP1 SWAP3 MSTORE SWAP5 SWAP4 POP POP POP POP JUMP JUMPDEST PUSH1 0x0 DUP1 PUSH1 0x0 DUP1 PUSH1 0x0 DUP1 PUSH1 0x0 DUP1 PUSH1 0x0 DUP1 PUSH2 0x140 DUP12 DUP14 SUB SLT ISZERO PUSH3 0x228 JUMPI PUSH1 0x0 DUP1 REVERT JUMPDEST DUP11 MLOAD PUSH1 0x1 PUSH1 0x1 PUSH1 0x40 SHL SUB DUP1 DUP3 GT ISZERO PUSH3 0x240 JUMPI PUSH1 0x0 DUP1 REVERT JUMPDEST PUSH3 0x24E DUP15 DUP4 DUP16 ADD PUSH3 0x158 JUMP JUMPDEST SWAP12 POP PUSH1 0x20 DUP14 ADD MLOAD SWAP2 POP DUP1 DUP3 GT ISZERO PUSH3 0x265 JUMPI PUSH1 0x0 DUP1 REVERT JUMPDEST PUSH3 0x273 DUP15 DUP4 DUP16 ADD PUSH3 0x158 JUMP JUMPDEST SWAP11 POP PUSH1 0x40 DUP14 ADD MLOAD SWAP10 POP PUSH1 0x60 DUP14 ADD MLOAD SWAP9 POP PUSH1 0x80 DUP14 ADD MLOAD SWAP2 POP DUP1 DUP3 GT ISZERO PUSH3 0x298 JUMPI PUSH1 0x0 DUP1 REVERT JUMPDEST PUSH3 0x2A6 DUP15 DUP4 DUP16 ADD PUSH3 0x158 JUMP JUMPDEST SWAP8 POP PUSH1 0xA0 DUP14 ADD MLOAD SWAP2 POP DUP1 DUP3 GT ISZERO PUSH3 0x2BD JUMPI PUSH1 0x0 DUP1 REVERT JUMPDEST PUSH3 0x2CB DUP15 DUP4 DUP16 ADD PUSH3 0x158 JUMP JUMPDEST SWAP7 POP PUSH1 0xC0 DUP14 ADD MLOAD SWAP2 POP DUP1 DUP3 GT ISZERO PUSH3 0x2E2 JUMPI PUSH1 0x0 DUP1 REVERT JUMPDEST PUSH3 0x2F0 DUP15 DUP4 DUP16 ADD PUSH3 0x158 JUMP JUMPDEST SWAP6 POP PUSH1 0xE0 DUP14 ADD MLOAD SWAP2 POP DUP1 DUP3 GT ISZERO PUSH3 0x307 JUMPI PUSH1 0x0 DUP1 REVERT JUMPDEST POP PUSH3 0x316 DUP14 DUP3 DUP15 ADD PUSH3 0x158 JUMP JUMPDEST SWAP4 POP POP PUSH2 0x100 DUP12 ADD MLOAD SWAP2 POP PUSH2 0x120 DUP12 ADD MLOAD SWAP1 POP SWAP3 SWAP6 SWAP9 SWAP12 SWAP2 SWAP5 SWAP8 SWAP11 POP SWAP3 SWAP6 SWAP9 POP JUMP JUMPDEST PUSH1 0x1 DUP2 DUP2 SHR SWAP1 DUP3 AND DUP1 PUSH3 0x34D JUMPI PUSH1 0x7F DUP3 AND SWAP2 POP JUMPDEST PUSH1 0x20 DUP3 LT DUP2 SUB PUSH3 0x36E JUMPI PUSH4 0x4E487B71 PUSH1 0xE0 SHL PUSH1 0x0 MSTORE PUSH1 0x22 PUSH1 0x4 MSTORE PUSH1 0x24 PUSH1 0x0 REVERT JUMPDEST POP SWAP2 SWAP1 POP JUMP JUMPDEST PUSH1 0x1F DUP3 GT ISZERO PUSH3 0x3C2 JUMPI PUSH1 0x0 DUP2 DUP2 MSTORE PUSH1 0x20 DUP2 KECCAK256 PUSH1 0x1F DUP6 ADD PUSH1 0x5 SHR DUP2 ADD PUSH1 0x20 DUP7 LT ISZERO PUSH3 0x39D JUMPI POP DUP1 JUMPDEST PUSH1 0x1F DUP6 ADD PUSH1 0x5 SHR DUP3 ADD SWAP2 POP JUMPDEST DUP2 DUP2 LT ISZERO PUSH3 0x3BE JUMPI DUP3 DUP2 SSTORE PUSH1 0x1 ADD PUSH3 0x3A9 JUMP JUMPDEST POP POP POP JUMPDEST POP POP POP JUMP JUMPDEST DUP2 MLOAD PUSH1 0x1 PUSH1 0x1 PUSH1 0x40 SHL SUB DUP2 GT ISZERO PUSH3 0x3E3 JUMPI PUSH3 0x3E3 PUSH3 0x142 JUMP JUMPDEST PUSH3 0x3FB DUP2 PUSH3 0x3F4 DUP5 SLOAD PUSH3 0x338 JUMP JUMPDEST DUP5 PUSH3 0x374 JUMP JUMPDEST PUSH1 0x20 DUP1 PUSH1 0x1F DUP4 GT PUSH1 0x1 DUP2 EQ PUSH3 0x433 JUMPI PUSH1 0x0 DUP5 ISZERO PUSH3 0x41A JUMPI POP DUP6 DUP4 ADD MLOAD JUMPDEST PUSH1 0x0 NOT PUSH1 0x3 DUP7 SWAP1 SHL SHR NOT AND PUSH1 0x1 DUP6 SWAP1 SHL OR DUP6 SSTORE PUSH3 0x3BE JUMP JUMPDEST PUSH1 0x0 DUP6 DUP2 MSTORE PUSH1 0x20 DUP2 KECCAK256 PUSH1 0x1F NOT DUP7 AND SWAP2 JUMPDEST DUP3 DUP2 LT ISZERO PUSH3 0x464 JUMPI DUP9 DUP7 ADD MLOAD DUP3 SSTORE SWAP5 DUP5 ADD SWAP5 PUSH1 0x1 SWAP1 SWAP2 ADD SWAP1 DUP5 ADD PUSH3 0x443 JUMP JUMPDEST POP DUP6 DUP3 LT ISZERO PUSH3 0x483 JUMPI DUP8 DUP6 ADD MLOAD PUSH1 0x0 NOT PUSH1 0x3 DUP9 SWAP1 SHL PUSH1 0xF8 AND SHR NOT AND DUP2 SSTORE JUMPDEST POP POP POP POP POP PUSH1 0x1 SWAP1 DUP2 SHL ADD SWAP1 SSTORE POP JUMP JUMPDEST PUSH1 0x80 MLOAD PUSH2 0x1197 PUSH3 0x4B6 PUSH1 0x0 CODECOPY PUSH1 0x0 DUP2 DUP2 PUSH2 0x3CA ADD MSTORE PUSH2 0x9EF ADD MSTORE PUSH2 0x1197 PUSH1 0x0 RETURN INVALID PUSH1 0x80 PUSH1 0x40 MSTORE PUSH1 0x4 CALLDATASIZE LT PUSH2 0x166 JUMPI PUSH1 0x0 CALLDATALOAD PUSH1 0xE0 SHR DUP1 PUSH4 0x70A08231 GT PUSH2 0xD1 JUMPI DUP1 PUSH4 0x8DA5CB5B GT PUSH2 0x8A JUMPI DUP1 PUSH4 0xD5ABEB01 GT PUSH2 0x64 JUMPI DUP1 PUSH4 0xD5ABEB01 EQ PUSH2 0x3B8 JUMPI DUP1 PUSH4 0xDD62ED3E EQ PUSH2 0x3EC JUMPI DUP1 PUSH4 0xED0EA003 EQ PUSH2 0x432 JUMPI DUP1 PUSH4 0xF2FDE38B EQ PUSH2 0x45F JUMPI PUSH1 0x0 DUP1 REVERT JUMPDEST DUP1 PUSH4 0x8DA5CB5B EQ PUSH2 0x35B JUMPI DUP1 PUSH4 0x95D89B41 EQ PUSH2 0x383 JUMPI DUP1 PUSH4 0xA9059CBB EQ PUSH2 0x398 JUMPI PUSH1 0x0 DUP1 REVERT JUMPDEST DUP1 PUSH4 0x70A08231 EQ PUSH2 0x2BB JUMPI DUP1 PUSH4 0x715018A6 EQ PUSH2 0x2F1 JUMPI DUP1 PUSH4 0x75513802 EQ PUSH2 0x306 JUMPI DUP1 PUSH4 0x7A3A0E84 EQ PUSH2 0x31C JUMPI DUP1 PUSH4 0x7B97008D EQ PUSH2 0x332 JUMPI DUP1 PUSH4 0x7FF9B596 EQ PUSH2 0x345 JUMPI PUSH1 0x0 DUP1 REVERT JUMPDEST DUP1 PUSH4 0x278DE000 GT PUSH2 0x123 JUMPI DUP1 PUSH4 0x278DE000 EQ PUSH2 0x241 JUMPI DUP1 PUSH4 0x313CE567 EQ PUSH2 0x256 JUMPI DUP1 PUSH4 0x3CCFD60B EQ PUSH2 0x272 JUMPI DUP1 PUSH4 0x516F279E EQ PUSH2 0x289 JUMPI DUP1 PUSH4 0x62B1F2ED EQ PUSH2 0x29E JUMPI DUP1 PUSH4 0x65C3C9B7 EQ PUSH2 0x2B3 JUMPI PUSH1 0x0 DUP1 REVERT JUMPDEST DUP1 PUSH4 0x3E78103 EQ PUSH2 0x16B JUMPI DUP1 PUSH4 0x6FDDE03 EQ PUSH2 0x196 JUMPI DUP1 PUSH4 0x9434F28 EQ PUSH2 0x1AB JUMPI DUP1 PUSH4 0x95EA7B3 EQ PUSH2 0x1D2 JUMPI DUP1 PUSH4 0x18160DDD EQ PUSH2 0x202 JUMPI DUP1 PUSH4 0x23B872DD EQ PUSH2 0x221 JUMPI JUMPDEST PUSH1 0x0 DUP1 REVERT JUMPDEST CALLVALUE DUP1 ISZERO PUSH2 0x177 JUMPI PUSH1 0x0 DUP1 REVERT JUMPDEST POP PUSH2 0x180 PUSH2 0x47F JUMP JUMPDEST PUSH1 0x40 MLOAD PUSH2 0x18D SWAP2 SWAP1 PUSH2 0xF6E JUMP JUMPDEST PUSH1 0x40 MLOAD DUP1 SWAP2 SUB SWAP1 RETURN JUMPDEST CALLVALUE DUP1 ISZERO PUSH2 0x1A2 JUMPI PUSH1 0x0 DUP1 REVERT JUMPDEST POP PUSH2 0x180 PUSH2 0x50D JUMP JUMPDEST CALLVALUE DUP1 ISZERO PUSH2 0x1B7 JUMPI PUSH1 0x0 DUP1 REVERT JUMPDEST POP PUSH2 0x1C0 PUSH2 0x59F JUMP JUMPDEST PUSH1 0x40 MLOAD PUSH2 0x18D SWAP7 SWAP6 SWAP5 SWAP4 SWAP3 SWAP2 SWAP1 PUSH2 0xF88 JUMP JUMPDEST CALLVALUE DUP1 ISZERO PUSH2 0x1DE JUMPI PUSH1 0x0 DUP1 REVERT JUMPDEST POP PUSH2 0x1F2 PUSH2 0x1ED CALLDATASIZE PUSH1 0x4 PUSH2 0x1007 JUMP JUMPDEST PUSH2 0x7FA JUMP JUMPDEST PUSH1 0x40 MLOAD SWAP1 ISZERO ISZERO DUP2 MSTORE PUSH1 0x20 ADD PUSH2 0x18D JUMP JUMPDEST CALLVALUE DUP1 ISZERO PUSH2 0x20E JUMPI PUSH1 0x0 DUP1 REVERT JUMPDEST POP PUSH1 0x2 SLOAD JUMPDEST PUSH1 0x40 MLOAD SWAP1 DUP2 MSTORE PUSH1 0x20 ADD PUSH2 0x18D JUMP JUMPDEST CALLVALUE DUP1 ISZERO PUSH2 0x22D JUMPI PUSH1 0x0 DUP1 REVERT JUMPDEST POP PUSH2 0x1F2 PUSH2 0x23C CALLDATASIZE PUSH1 0x4 PUSH2 0x1031 JUMP JUMPDEST PUSH2 0x814 JUMP JUMPDEST CALLVALUE DUP1 ISZERO PUSH2 0x24D JUMPI PUSH1 0x0 DUP1 REVERT JUMPDEST POP PUSH2 0x180 PUSH2 0x838 JUMP JUMPDEST CALLVALUE DUP1 ISZERO PUSH2 0x262 JUMPI PUSH1 0x0 DUP1 REVERT JUMPDEST POP PUSH1 0x40 MLOAD PUSH1 0x12 DUP2 MSTORE PUSH1 0x20 ADD PUSH2 0x18D JUMP JUMPDEST CALLVALUE DUP1 ISZERO PUSH2 0x27E JUMPI PUSH1 0x0 DUP1 REVERT JUMPDEST POP PUSH2 0x287 PUSH2 0x845 JUMP JUMPDEST STOP JUMPDEST CALLVALUE DUP1 ISZERO PUSH2 0x295 JUMPI PUSH1 0x0 DUP1 REVERT JUMPDEST POP PUSH2 0x180 PUSH2 0x889 JUMP JUMPDEST CALLVALUE DUP1 ISZERO PUSH2 0x2AA JUMPI PUSH1 0x0 DUP1 REVERT JUMPDEST POP PUSH2 0x180 PUSH2 0x896 JUMP JUMPDEST PUSH2 0x287 PUSH2 0x8A3 JUMP JUMPDEST CALLVALUE DUP1 ISZERO PUSH2 0x2C7 JUMPI PUSH1 0x0 DUP1 REVERT JUMPDEST POP PUSH2 0x213 PUSH2 0x2D6 CALLDATASIZE PUSH1 0x4 PUSH2 0x106D JUMP JUMPDEST PUSH1 0x1 PUSH1 0x1 PUSH1 0xA0 SHL SUB AND PUSH1 0x0 SWAP1 DUP2 MSTORE PUSH1 0x20 DUP2 SWAP1 MSTORE PUSH1 0x40 SWAP1 KECCAK256 SLOAD SWAP1 JUMP JUMPDEST CALLVALUE DUP1 ISZERO PUSH2 0x2FD JUMPI PUSH1 0x0 DUP1 REVERT JUMPDEST POP PUSH2 0x287 PUSH2 0x92A JUMP JUMPDEST CALLVALUE DUP1 ISZERO PUSH2 0x312 JUMPI PUSH1 0x0 DUP1 REVERT JUMPDEST POP PUSH2 0x213 PUSH1 0xC SLOAD DUP2 JUMP JUMPDEST CALLVALUE DUP1 ISZERO PUSH2 0x328 JUMPI PUSH1 0x0 DUP1 REVERT JUMPDEST POP PUSH2 0x213 PUSH1 0xB SLOAD DUP2 JUMP JUMPDEST PUSH2 0x287 PUSH2 0x340 CALLDATASIZE PUSH1 0x4 PUSH2 0x1088 JUMP JUMPDEST PUSH2 0x93E JUMP JUMPDEST CALLVALUE DUP1 ISZERO PUSH2 0x351 JUMPI PUSH1 0x0 DUP1 REVERT JUMPDEST POP PUSH2 0x213 PUSH1 0x6 SLOAD DUP2 JUMP JUMPDEST CALLVALUE DUP1 ISZERO PUSH2 0x367 JUMPI PUSH1 0x0 DUP1 REVERT JUMPDEST POP PUSH1 0x5 SLOAD PUSH1 0x40 MLOAD PUSH1 0x1 PUSH1 0x1 PUSH1 0xA0 SHL SUB SWAP1 SWAP2 AND DUP2 MSTORE PUSH1 0x20 ADD PUSH2 0x18D JUMP JUMPDEST CALLVALUE DUP1 ISZERO PUSH2 0x38F JUMPI PUSH1 0x0 DUP1 REVERT JUMPDEST POP PUSH2 0x180 PUSH2 0xB2C JUMP JUMPDEST CALLVALUE DUP1 ISZERO PUSH2 0x3A4 JUMPI PUSH1 0x0 DUP1 REVERT JUMPDEST POP PUSH2 0x1F2 PUSH2 0x3B3 CALLDATASIZE PUSH1 0x4 PUSH2 0x1007 JUMP JUMPDEST PUSH2 0xB3B JUMP JUMPDEST CALLVALUE DUP1 ISZERO PUSH2 0x3C4 JUMPI PUSH1 0x0 DUP1 REVERT JUMPDEST POP PUSH2 0x213 PUSH32 0x0 DUP2 JUMP JUMPDEST CALLVALUE DUP1 ISZERO PUSH2 0x3F8 JUMPI PUSH1 0x0 DUP1 REVERT JUMPDEST POP PUSH2 0x213 PUSH2 0x407 CALLDATASIZE PUSH1 0x4 PUSH2 0x10A1 JUMP JUMPDEST PUSH1 0x1 PUSH1 0x1 PUSH1 0xA0 SHL SUB SWAP2 DUP3 AND PUSH1 0x0 SWAP1 DUP2 MSTORE PUSH1 0x1 PUSH1 0x20 SWAP1 DUP2 MSTORE PUSH1 0x40 DUP1 DUP4 KECCAK256 SWAP4 SWAP1 SWAP5 AND DUP3 MSTORE SWAP2 SWAP1 SWAP2 MSTORE KECCAK256 SLOAD SWAP1 JUMP JUMPDEST CALLVALUE DUP1 ISZERO PUSH2 0x43E JUMPI PUSH1 0x0 DUP1 REVERT JUMPDEST POP PUSH2 0x213 PUSH2 0x44D CALLDATASIZE PUSH1 0x4 PUSH2 0x106D JUMP JUMPDEST PUSH1 0xD PUSH1 0x20 MSTORE PUSH1 0x0 SWAP1 DUP2 MSTORE PUSH1 0x40 SWAP1 KECCAK256 SLOAD DUP2 JUMP JUMPDEST CALLVALUE DUP1 ISZERO PUSH2 0x46B JUMPI PUSH1 0x0 DUP1 REVERT JUMPDEST POP PUSH2 0x287 PUSH2 0x47A CALLDATASIZE PUSH1 0x4 PUSH2 0x106D JUMP JUMPDEST PUSH2 0xB49 JUMP JUMPDEST PUSH1 0x8 DUP1 SLOAD PUSH2 0x48C SWAP1 PUSH2 0x10D4 JUMP JUMPDEST DUP1 PUSH1 0x1F ADD PUSH1 0x20 DUP1 SWAP2 DIV MUL PUSH1 0x20 ADD PUSH1 0x40 MLOAD SWAP1 DUP2 ADD PUSH1 0x40 MSTORE DUP1 SWAP3 SWAP2 SWAP1 DUP2 DUP2 MSTORE PUSH1 0x20 ADD DUP3 DUP1 SLOAD PUSH2 0x4B8 SWAP1 PUSH2 0x10D4 JUMP JUMPDEST DUP1 ISZERO PUSH2 0x505 JUMPI DUP1 PUSH1 0x1F LT PUSH2 0x4DA JUMPI PUSH2 0x100 DUP1 DUP4 SLOAD DIV MUL DUP4 MSTORE SWAP2 PUSH1 0x20 ADD SWAP2 PUSH2 0x505 JUMP JUMPDEST DUP3 ADD SWAP2 SWAP1 PUSH1 0x0 MSTORE PUSH1 0x20 PUSH1 0x0 KECCAK256 SWAP1 JUMPDEST DUP2 SLOAD DUP2 MSTORE SWAP1 PUSH1 0x1 ADD SWAP1 PUSH1 0x20 ADD DUP1 DUP4 GT PUSH2 0x4E8 JUMPI DUP3 SWAP1 SUB PUSH1 0x1F AND DUP3 ADD SWAP2 JUMPDEST POP POP POP POP POP DUP2 JUMP JUMPDEST PUSH1 0x60 PUSH1 0x3 DUP1 SLOAD PUSH2 0x51C SWAP1 PUSH2 0x10D4 JUMP JUMPDEST DUP1 PUSH1 0x1F ADD PUSH1 0x20 DUP1 SWAP2 DIV MUL PUSH1 0x20 ADD PUSH1 0x40 MLOAD SWAP1 DUP2 ADD PUSH1 0x40 MSTORE DUP1 SWAP3 SWAP2 SWAP1 DUP2 DUP2 MSTORE PUSH1 0x20 ADD DUP3 DUP1 SLOAD PUSH2 0x548 SWAP1 PUSH2 0x10D4 JUMP JUMPDEST DUP1 ISZERO PUSH2 0x595 JUMPI DUP1 PUSH1 0x1F LT PUSH2 0x56A JUMPI PUSH2 0x100 DUP1 DUP4 SLOAD DIV MUL DUP4 MSTORE SWAP2 PUSH1 0x20 ADD SWAP2 PUSH2 0x595 JUMP JUMPDEST DUP3 ADD SWAP2 SWAP1 PUSH1 0x0 MSTORE PUSH1 0x20 PUSH1 0x0 KECCAK256 SWAP1 JUMPDEST DUP2 SLOAD DUP2 MSTORE SWAP1 PUSH1 0x1 ADD SWAP1 PUSH1 0x20 ADD DUP1 DUP4 GT PUSH2 0x578 JUMPI DUP3 SWAP1 SUB PUSH1 0x1F AND DUP3 ADD SWAP2 JUMPDEST POP POP POP POP POP SWAP1 POP SWAP1 JUMP JUMPDEST PUSH1 0x60 DUP1 PUSH1 0x60 DUP1 PUSH1 0x0 DUP1 PUSH1 0x7 PUSH1 0x8 PUSH1 0x9 PUSH1 0xA PUSH1 0xB SLOAD PUSH1 0xC SLOAD DUP6 DUP1 SLOAD PUSH2 0x5C2 SWAP1 PUSH2 0x10D4 JUMP JUMPDEST DUP1 PUSH1 0x1F ADD PUSH1 0x20 DUP1 SWAP2 DIV MUL PUSH1 0x20 ADD PUSH1 0x40 MLOAD SWAP1 DUP2 ADD PUSH1 0x40 MSTORE DUP1 SWAP3 SWAP2 SWAP1 DUP2 DUP2 MSTORE PUSH1 0x20 ADD DUP3 DUP1 SLOAD PUSH2 0x5EE SWAP1 PUSH2 0x10D4 JUMP JUMPDEST DUP1 ISZERO PUSH2 0x63B JUMPI DUP1 PUSH1 0x1F LT PUSH2 0x610 JUMPI PUSH2 0x100 DUP1 DUP4 SLOAD DIV MUL DUP4 MSTORE SWAP2 PUSH1 0x20 ADD SWAP2 PUSH2 0x63B JUMP JUMPDEST DUP3 ADD SWAP2 SWAP1 PUSH1 0x0 MSTORE PUSH1 0x20 PUSH1 0x0 KECCAK256 SWAP1 JUMPDEST DUP2 SLOAD DUP2 MSTORE SWAP1 PUSH1 0x1 ADD SWAP1 PUSH1 0x20 ADD DUP1 DUP4 GT PUSH2 0x61E JUMPI DUP3 SWAP1 SUB PUSH1 0x1F AND DUP3 ADD SWAP2 JUMPDEST POP POP POP POP POP SWAP6 POP DUP5 DUP1 SLOAD PUSH2 0x64E SWAP1 PUSH2 0x10D4 JUMP JUMPDEST DUP1 PUSH1 0x1F ADD PUSH1 0x20 DUP1 SWAP2 DIV MUL PUSH1 0x20 ADD PUSH1 0x40 MLOAD SWAP1 DUP2 ADD PUSH1 0x40 MSTORE DUP1 SWAP3 SWAP2 SWAP1 DUP2 DUP2 MSTORE PUSH1 0x20 ADD DUP3 DUP1 SLOAD PUSH2 0x67A SWAP1 PUSH2 0x10D4 JUMP JUMPDEST DUP1 ISZERO PUSH2 0x6C7 JUMPI DUP1 PUSH1 0x1F LT PUSH2 0x69C JUMPI PUSH2 0x100 DUP1 DUP4 SLOAD DIV MUL DUP4 MSTORE SWAP2 PUSH1 0x20 ADD SWAP2 PUSH2 0x6C7 JUMP JUMPDEST DUP3 ADD SWAP2 SWAP1 PUSH1 0x0 MSTORE PUSH1 0x20 PUSH1 0x0 KECCAK256 SWAP1 JUMPDEST DUP2 SLOAD DUP2 MSTORE SWAP1 PUSH1 0x1 ADD SWAP1 PUSH1 0x20 ADD DUP1 DUP4 GT PUSH2 0x6AA JUMPI DUP3 SWAP1 SUB PUSH1 0x1F AND DUP3 ADD SWAP2 JUMPDEST POP POP POP POP POP SWAP5 POP DUP4 DUP1 SLOAD PUSH2 0x6DA SWAP1 PUSH2 0x10D4 JUMP JUMPDEST DUP1 PUSH1 0x1F ADD PUSH1 0x20 DUP1 SWAP2 DIV MUL PUSH1 0x20 ADD PUSH1 0x40 MLOAD SWAP1 DUP2 ADD PUSH1 0x40 MSTORE DUP1 SWAP3 SWAP2 SWAP1 DUP2 DUP2 MSTORE PUSH1 0x20 ADD DUP3 DUP1 SLOAD PUSH2 0x706 SWAP1 PUSH2 0x10D4 JUMP JUMPDEST DUP1 ISZERO PUSH2 0x753 JUMPI DUP1 PUSH1 0x1F LT PUSH2 0x728 JUMPI PUSH2 0x100 DUP1 DUP4 SLOAD DIV MUL DUP4 MSTORE SWAP2 PUSH1 0x20 ADD SWAP2 PUSH2 0x753 JUMP JUMPDEST DUP3 ADD SWAP2 SWAP1 PUSH1 0x0 MSTORE PUSH1 0x20 PUSH1 0x0 KECCAK256 SWAP1 JUMPDEST DUP2 SLOAD DUP2 MSTORE SWAP1 PUSH1 0x1 ADD SWAP1 PUSH1 0x20 ADD DUP1 DUP4 GT PUSH2 0x736 JUMPI DUP3 SWAP1 SUB PUSH1 0x1F AND DUP3 ADD SWAP2 JUMPDEST POP POP POP POP POP SWAP4 POP DUP3 DUP1 SLOAD PUSH2 0x766 SWAP1 PUSH2 0x10D4 JUMP JUMPDEST DUP1 PUSH1 0x1F ADD PUSH1 0x20 DUP1 SWAP2 DIV MUL PUSH1 0x20 ADD PUSH1 0x40 MLOAD SWAP1 DUP2 ADD PUSH1 0x40 MSTORE DUP1 SWAP3 SWAP2 SWAP1 DUP2 DUP2 MSTORE PUSH1 0x20 ADD DUP3 DUP1 SLOAD PUSH2 0x792 SWAP1 PUSH2 0x10D4 JUMP JUMPDEST DUP1 ISZERO PUSH2 0x7DF JUMPI DUP1 PUSH1 0x1F LT PUSH2 0x7B4 JUMPI PUSH2 0x100 DUP1 DUP4 SLOAD DIV MUL DUP4 MSTORE SWAP2 PUSH1 0x20 ADD SWAP2 PUSH2 0x7DF JUMP JUMPDEST DUP3 ADD SWAP2 SWAP1 PUSH1 0x0 MSTORE PUSH1 0x20 PUSH1 0x0 KECCAK256 SWAP1 JUMPDEST DUP2 SLOAD DUP2 MSTORE SWAP1 PUSH1 0x1 ADD SWAP1 PUSH1 0x20 ADD DUP1 DUP4 GT PUSH2 0x7C2 JUMPI DUP3 SWAP1 SUB PUSH1 0x1F AND DUP3 ADD SWAP2 JUMPDEST POP POP POP POP POP SWAP3 POP SWAP6 POP SWAP6 POP SWAP6 POP SWAP6 POP SWAP6 POP SWAP6 POP SWAP1 SWAP2 SWAP3 SWAP4 SWAP5 SWAP6 JUMP JUMPDEST PUSH1 0x0 CALLER PUSH2 0x808 DUP2 DUP6 DUP6 PUSH2 0xB84 JUMP JUMPDEST PUSH1 0x1 SWAP2 POP POP JUMPDEST SWAP3 SWAP2 POP POP JUMP JUMPDEST PUSH1 0x0 CALLER PUSH2 0x822 DUP6 DUP3 DUP6 PUSH2 0xB96 JUMP JUMPDEST PUSH2 0x82D DUP6 DUP6 DUP6 PUSH2 0xC15 JUMP JUMPDEST POP PUSH1 0x1 SWAP5 SWAP4 POP POP POP POP JUMP JUMPDEST PUSH1 0x7 DUP1 SLOAD PUSH2 0x48C SWAP1 PUSH2 0x10D4 JUMP JUMPDEST PUSH2 0x84D PUSH2 0xC74 JUMP JUMPDEST PUSH1 0x5 SLOAD PUSH1 0x40 MLOAD PUSH1 0x1 PUSH1 0x1 PUSH1 0xA0 SHL SUB SWAP1 SWAP2 AND SWAP1 SELFBALANCE DUP1 ISZERO PUSH2 0x8FC MUL SWAP2 PUSH1 0x0 DUP2 DUP2 DUP2 DUP6 DUP9 DUP9 CALL SWAP4 POP POP POP POP ISZERO DUP1 ISZERO PUSH2 0x886 JUMPI RETURNDATASIZE PUSH1 0x0 DUP1 RETURNDATACOPY RETURNDATASIZE PUSH1 0x0 REVERT JUMPDEST POP JUMP JUMPDEST PUSH1 0xA DUP1 SLOAD PUSH2 0x48C SWAP1 PUSH2 0x10D4 JUMP JUMPDEST PUSH1 0x9 DUP1 SLOAD PUSH2 0x48C SWAP1 PUSH2 0x10D4 JUMP JUMPDEST PUSH2 0x8AB PUSH2 0xC74 JUMP JUMPDEST PUSH1 0x0 CALLVALUE GT PUSH2 0x8F5 JUMPI PUSH1 0x40 MLOAD PUSH3 0x461BCD PUSH1 0xE5 SHL DUP2 MSTORE PUSH1 0x20 PUSH1 0x4 DUP3 ADD MSTORE PUSH1 0x12 PUSH1 0x24 DUP3 ADD MSTORE PUSH18 0x4E6F20686172766573742072657475726E73 PUSH1 0x70 SHL PUSH1 0x44 DUP3 ADD MSTORE PUSH1 0x64 ADD JUMPDEST PUSH1 0x40 MLOAD DUP1 SWAP2 SUB SWAP1 REVERT JUMPDEST PUSH1 0x40 MLOAD CALLVALUE DUP2 MSTORE PUSH32 0x3C62F024362FA897EBC89AAA2CF3AEFA1F6184F2733AABF1B1F90C690D7548AC SWAP1 PUSH1 0x20 ADD PUSH1 0x40 MLOAD DUP1 SWAP2 SUB SWAP1 LOG1 JUMP JUMPDEST PUSH2 0x932 PUSH2 0xC74 JUMP JUMPDEST PUSH2 0x93C PUSH1 0x0 PUSH2 0xCA1 JUMP JUMPDEST JUMP JUMPDEST PUSH1 0x0 DUP2 GT PUSH2 0x99A JUMPI PUSH1 0x40 MLOAD PUSH3 0x461BCD PUSH1 0xE5 SHL DUP2 MSTORE PUSH1 0x20 PUSH1 0x4 DUP3 ADD MSTORE PUSH1 0x23 PUSH1 0x24 DUP3 ADD MSTORE PUSH32 0x546F6B656E20616D6F756E74206D757374206265206772656174657220746861 PUSH1 0x44 DUP3 ADD MSTORE PUSH3 0x6E203 PUSH1 0xEC SHL PUSH1 0x64 DUP3 ADD MSTORE PUSH1 0x84 ADD PUSH2 0x8EC JUMP JUMPDEST PUSH1 0x6 SLOAD PUSH2 0x9A7 SWAP1 DUP3 PUSH2 0x1124 JUMP JUMPDEST CALLVALUE LT ISZERO PUSH2 0x9ED JUMPI PUSH1 0x40 MLOAD PUSH3 0x461BCD PUSH1 0xE5 SHL DUP2 MSTORE PUSH1 0x20 PUSH1 0x4 DUP3 ADD MSTORE PUSH1 0x14 PUSH1 0x24 DUP3 ADD MSTORE PUSH20 0x125B9CDD59999A58DA595B9D081C185E5B595B9D PUSH1 0x62 SHL PUSH1 0x44 DUP3 ADD MSTORE PUSH1 0x64 ADD PUSH2 0x8EC JUMP JUMPDEST PUSH32 0x0 DUP2 PUSH2 0xA18 PUSH1 0x2 SLOAD SWAP1 JUMP JUMPDEST PUSH2 0xA22 SWAP2 SWAP1 PUSH2 0x113B JUMP JUMPDEST GT ISZERO PUSH2 0xA65 JUMPI PUSH1 0x40 MLOAD PUSH3 0x461BCD PUSH1 0xE5 SHL DUP2 MSTORE PUSH1 0x20 PUSH1 0x4 DUP3 ADD MSTORE PUSH1 0x12 PUSH1 0x24 DUP3 ADD MSTORE PUSH18 0x45786365656473206D617820737570706C79 PUSH1 0x70 SHL PUSH1 0x44 DUP3 ADD MSTORE PUSH1 0x64 ADD PUSH2 0x8EC JUMP JUMPDEST CALLER PUSH1 0x0 SWAP1 DUP2 MSTORE PUSH1 0xD PUSH1 0x20 MSTORE PUSH1 0x40 DUP2 KECCAK256 DUP1 SLOAD CALLVALUE SWAP3 SWAP1 PUSH2 0xA84 SWAP1 DUP5 SWAP1 PUSH2 0x113B JUMP JUMPDEST SWAP1 SWAP2 SSTORE POP PUSH2 0xA94 SWAP1 POP CALLER DUP3 PUSH2 0xCF3 JUMP JUMPDEST PUSH1 0x40 DUP1 MLOAD CALLVALUE DUP2 MSTORE PUSH1 0x20 DUP2 ADD DUP4 SWAP1 MSTORE CALLER SWAP2 PUSH32 0x8FAFEBCAF9D154343DAD25669BFA277F4FBACD7AC6B0C4FED522580E040A0F33 SWAP2 ADD PUSH1 0x40 MLOAD DUP1 SWAP2 SUB SWAP1 LOG2 PUSH1 0x6 SLOAD PUSH2 0xADC SWAP1 DUP3 PUSH2 0x1124 JUMP JUMPDEST CALLVALUE GT ISZERO PUSH2 0x886 JUMPI PUSH1 0x6 SLOAD CALLER SWAP1 PUSH2 0x8FC SWAP1 PUSH2 0xAF6 SWAP1 DUP5 PUSH2 0x1124 JUMP JUMPDEST PUSH2 0xB00 SWAP1 CALLVALUE PUSH2 0x114E JUMP JUMPDEST PUSH1 0x40 MLOAD DUP2 ISZERO SWAP1 SWAP3 MUL SWAP2 PUSH1 0x0 DUP2 DUP2 DUP2 DUP6 DUP9 DUP9 CALL SWAP4 POP POP POP POP ISZERO DUP1 ISZERO PUSH2 0xB28 JUMPI RETURNDATASIZE PUSH1 0x0 DUP1 RETURNDATACOPY RETURNDATASIZE PUSH1 0x0 REVERT JUMPDEST POP POP JUMP JUMPDEST PUSH1 0x60 PUSH1 0x4 DUP1 SLOAD PUSH2 0x51C SWAP1 PUSH2 0x10D4 JUMP JUMPDEST PUSH1 0x0 CALLER PUSH2 0x808 DUP2 DUP6 DUP6 PUSH2 0xC15 JUMP JUMPDEST PUSH2 0xB51 PUSH2 0xC74 JUMP JUMPDEST PUSH1 0x1 PUSH1 0x1 PUSH1 0xA0 SHL SUB DUP2 AND PUSH2 0xB7B JUMPI PUSH1 0x40 MLOAD PUSH4 0x1E4FBDF7 PUSH1 0xE0 SHL DUP2 MSTORE PUSH1 0x0 PUSH1 0x4 DUP3 ADD MSTORE PUSH1 0x24 ADD PUSH2 0x8EC JUMP JUMPDEST PUSH2 0x886 DUP2 PUSH2 0xCA1 JUMP JUMPDEST PUSH2 0xB91 DUP4 DUP4 DUP4 PUSH1 0x1 PUSH2 0xD29 JUMP JUMPDEST POP POP POP JUMP JUMPDEST PUSH1 0x1 PUSH1 0x1 PUSH1 0xA0 SHL SUB DUP4 DUP2 AND PUSH1 0x0 SWAP1 DUP2 MSTORE PUSH1 0x1 PUSH1 0x20 SWAP1 DUP2 MSTORE PUSH1 0x40 DUP1 DUP4 KECCAK256 SWAP4 DUP7 AND DUP4 MSTORE SWAP3 SWAP1 MSTORE KECCAK256 SLOAD PUSH1 0x0 NOT DUP2 LT ISZERO PUSH2 0xC0F JUMPI DUP2 DUP2 LT ISZERO PUSH2 0xC00 JUMPI PUSH1 0x40 MLOAD PUSH4 0x7DC7A0D9 PUSH1 0xE1 SHL DUP2 MSTORE PUSH1 0x1 PUSH1 0x1 PUSH1 0xA0 SHL SUB DUP5 AND PUSH1 0x4 DUP3 ADD MSTORE PUSH1 0x24 DUP2 ADD DUP3 SWAP1 MSTORE PUSH1 0x44 DUP2 ADD DUP4 SWAP1 MSTORE PUSH1 0x64 ADD PUSH2 0x8EC JUMP JUMPDEST PUSH2 0xC0F DUP5 DUP5 DUP5 DUP5 SUB PUSH1 0x0 PUSH2 0xD29 JUMP JUMPDEST POP POP POP POP JUMP JUMPDEST PUSH1 0x1 PUSH1 0x1 PUSH1 0xA0 SHL SUB DUP4 AND PUSH2 0xC3F JUMPI PUSH1 0x40 MLOAD PUSH4 0x4B637E8F PUSH1 0xE1 SHL DUP2 MSTORE PUSH1 0x0 PUSH1 0x4 DUP3 ADD MSTORE PUSH1 0x24 ADD PUSH2 0x8EC JUMP JUMPDEST PUSH1 0x1 PUSH1 0x1 PUSH1 0xA0 SHL SUB DUP3 AND PUSH2 0xC69 JUMPI PUSH1 0x40 MLOAD PUSH4 0xEC442F05 PUSH1 0xE0 SHL DUP2 MSTORE PUSH1 0x0 PUSH1 0x4 DUP3 ADD MSTORE PUSH1 0x24 ADD PUSH2 0x8EC JUMP JUMPDEST PUSH2 0xB91 DUP4 DUP4 DUP4 PUSH2 0xDFE JUMP JUMPDEST PUSH1 0x5 SLOAD PUSH1 0x1 PUSH1 0x1 PUSH1 0xA0 SHL SUB AND CALLER EQ PUSH2 0x93C JUMPI PUSH1 0x40 MLOAD PUSH4 0x118CDAA7 PUSH1 0xE0 SHL DUP2 MSTORE CALLER PUSH1 0x4 DUP3 ADD MSTORE PUSH1 0x24 ADD PUSH2 0x8EC JUMP JUMPDEST PUSH1 0x5 DUP1 SLOAD PUSH1 0x1 PUSH1 0x1 PUSH1 0xA0 SHL SUB DUP4 DUP2 AND PUSH1 0x1 PUSH1 0x1 PUSH1 0xA0 SHL SUB NOT DUP4 AND DUP2 OR SWAP1 SWAP4 SSTORE PUSH1 0x40 MLOAD SWAP2 AND SWAP2 SWAP1 DUP3 SWAP1 PUSH32 0x8BE0079C531659141344CD1FD0A4F28419497F9722A3DAAFE3B4186F6B6457E0 SWAP1 PUSH1 0x0 SWAP1 LOG3 POP POP JUMP JUMPDEST PUSH1 0x1 PUSH1 0x1 PUSH1 0xA0 SHL SUB DUP3 AND PUSH2 0xD1D JUMPI PUSH1 0x40 MLOAD PUSH4 0xEC442F05 PUSH1 0xE0 SHL DUP2 MSTORE PUSH1 0x0 PUSH1 0x4 DUP3 ADD MSTORE PUSH1 0x24 ADD PUSH2 0x8EC JUMP JUMPDEST PUSH2 0xB28 PUSH1 0x0 DUP4 DUP4 PUSH2 0xDFE JUMP JUMPDEST PUSH1 0x1 PUSH1 0x1 PUSH1 0xA0 SHL SUB DUP5 AND PUSH2 0xD53 JUMPI PUSH1 0x40 MLOAD PUSH4 0xE602DF05 PUSH1 0xE0 SHL DUP2 MSTORE PUSH1 0x0 PUSH1 0x4 DUP3 ADD MSTORE PUSH1 0x24 ADD PUSH2 0x8EC JUMP JUMPDEST PUSH1 0x1 PUSH1 0x1 PUSH1 0xA0 SHL SUB DUP4 AND PUSH2 0xD7D JUMPI PUSH1 0x40 MLOAD PUSH4 0x4A1406B1 PUSH1 0xE1 SHL DUP2 MSTORE PUSH1 0x0 PUSH1 0x4 DUP3 ADD MSTORE PUSH1 0x24 ADD PUSH2 0x8EC JUMP JUMPDEST PUSH1 0x1 PUSH1 0x1 PUSH1 0xA0 SHL SUB DUP1 DUP6 AND PUSH1 0x0 SWAP1 DUP2 MSTORE PUSH1 0x1 PUSH1 0x20 SWAP1 DUP2 MSTORE PUSH1 0x40 DUP1 DUP4 KECCAK256 SWAP4 DUP8 AND DUP4 MSTORE SWAP3 SWAP1 MSTORE KECCAK256 DUP3 SWAP1 SSTORE DUP1 ISZERO PUSH2 0xC0F JUMPI DUP3 PUSH1 0x1 PUSH1 0x1 PUSH1 0xA0 SHL SUB AND DUP5 PUSH1 0x1 PUSH1 0x1 PUSH1 0xA0 SHL SUB AND PUSH32 0x8C5BE1E5EBEC7D5BD14F71427D1E84F3DD0314C0F7B2291E5B200AC8C7C3B925 DUP5 PUSH1 0x40 MLOAD PUSH2 0xDF0 SWAP2 DUP2 MSTORE PUSH1 0x20 ADD SWAP1 JUMP JUMPDEST PUSH1 0x40 MLOAD DUP1 SWAP2 SUB SWAP1 LOG3 POP POP POP POP JUMP JUMPDEST PUSH1 0x1 PUSH1 0x1 PUSH1 0xA0 SHL SUB DUP4 AND PUSH2 0xE29 JUMPI DUP1 PUSH1 0x2 PUSH1 0x0 DUP3 DUP3 SLOAD PUSH2 0xE1E SWAP2 SWAP1 PUSH2 0x113B JUMP JUMPDEST SWAP1 SWAP2 SSTORE POP PUSH2 0xE9B SWAP1 POP JUMP JUMPDEST PUSH1 0x1 PUSH1 0x1 PUSH1 0xA0 SHL SUB DUP4 AND PUSH1 0x0 SWAP1 DUP2 MSTORE PUSH1 0x20 DUP2 SWAP1 MSTORE PUSH1 0x40 SWAP1 KECCAK256 SLOAD DUP2 DUP2 LT ISZERO PUSH2 0xE7C JUMPI PUSH1 0x40 MLOAD PUSH4 0x391434E3 PUSH1 0xE2 SHL DUP2 MSTORE PUSH1 0x1 PUSH1 0x1 PUSH1 0xA0 SHL SUB DUP6 AND PUSH1 0x4 DUP3 ADD MSTORE PUSH1 0x24 DUP2 ADD DUP3 SWAP1 MSTORE PUSH1 0x44 DUP2 ADD DUP4 SWAP1 MSTORE PUSH1 0x64 ADD PUSH2 0x8EC JUMP JUMPDEST PUSH1 0x1 PUSH1 0x1 PUSH1 0xA0 SHL SUB DUP5 AND PUSH1 0x0 SWAP1 DUP2 MSTORE PUSH1 0x20 DUP2 SWAP1 MSTORE PUSH1 0x40 SWAP1 KECCAK256 SWAP1 DUP3 SWAP1 SUB SWAP1 SSTORE JUMPDEST PUSH1 0x1 PUSH1 0x1 PUSH1 0xA0 SHL SUB DUP3 AND PUSH2 0xEB7 JUMPI PUSH1 0x2 DUP1 SLOAD DUP3 SWAP1 SUB SWAP1 SSTORE PUSH2 0xED6 JUMP JUMPDEST PUSH1 0x1 PUSH1 0x1 PUSH1 0xA0 SHL SUB DUP3 AND PUSH1 0x0 SWAP1 DUP2 MSTORE PUSH1 0x20 DUP2 SWAP1 MSTORE PUSH1 0x40 SWAP1 KECCAK256 DUP1 SLOAD DUP3 ADD SWAP1 SSTORE JUMPDEST DUP2 PUSH1 0x1 PUSH1 0x1 PUSH1 0xA0 SHL SUB AND DUP4 PUSH1 0x1 PUSH1 0x1 PUSH1 0xA0 SHL SUB AND PUSH32 0xDDF252AD1BE2C89B69C2B068FC378DAA952BA7F163C4A11628F55A4DF523B3EF DUP4 PUSH1 0x40 MLOAD PUSH2 0xF1B SWAP2 DUP2 MSTORE PUSH1 0x20 ADD SWAP1 JUMP JUMPDEST PUSH1 0x40 MLOAD DUP1 SWAP2 SUB SWAP1 LOG3 POP POP POP JUMP JUMPDEST PUSH1 0x0 DUP2 MLOAD DUP1 DUP5 MSTORE PUSH1 0x0 JUMPDEST DUP2 DUP2 LT ISZERO PUSH2 0xF4E JUMPI PUSH1 0x20 DUP2 DUP6 ADD DUP2 ADD MLOAD DUP7 DUP4 ADD DUP3 ADD MSTORE ADD PUSH2 0xF32 JUMP JUMPDEST POP PUSH1 0x0 PUSH1 0x20 DUP3 DUP7 ADD ADD MSTORE PUSH1 0x20 PUSH1 0x1F NOT PUSH1 0x1F DUP4 ADD AND DUP6 ADD ADD SWAP2 POP POP SWAP3 SWAP2 POP POP JUMP JUMPDEST PUSH1 0x20 DUP2 MSTORE PUSH1 0x0 PUSH2 0xF81 PUSH1 0x20 DUP4 ADD DUP5 PUSH2 0xF28 JUMP JUMPDEST SWAP4 SWAP3 POP POP POP JUMP JUMPDEST PUSH1 0xC0 DUP2 MSTORE PUSH1 0x0 PUSH2 0xF9B PUSH1 0xC0 DUP4 ADD DUP10 PUSH2 0xF28 JUMP JUMPDEST DUP3 DUP2 SUB PUSH1 0x20 DUP5 ADD MSTORE PUSH2 0xFAD DUP2 DUP10 PUSH2 0xF28 JUMP JUMPDEST SWAP1 POP DUP3 DUP2 SUB PUSH1 0x40 DUP5 ADD MSTORE PUSH2 0xFC1 DUP2 DUP9 PUSH2 0xF28 JUMP JUMPDEST SWAP1 POP DUP3 DUP2 SUB PUSH1 0x60 DUP5 ADD MSTORE PUSH2 0xFD5 DUP2 DUP8 PUSH2 0xF28 JUMP JUMPDEST PUSH1 0x80 DUP5 ADD SWAP6 SWAP1 SWAP6 MSTORE POP POP PUSH1 0xA0 ADD MSTORE SWAP5 SWAP4 POP POP POP POP JUMP JUMPDEST DUP1 CALLDATALOAD PUSH1 0x1 PUSH1 0x1 PUSH1 0xA0 SHL SUB DUP2 AND DUP2 EQ PUSH2 0x1002 JUMPI PUSH1 0x0 DUP1 REVERT JUMPDEST SWAP2 SWAP1 POP JUMP JUMPDEST PUSH1 0x0 DUP1 PUSH1 0x40 DUP4 DUP6 SUB SLT ISZERO PUSH2 0x101A JUMPI PUSH1 0x0 DUP1 REVERT JUMPDEST PUSH2 0x1023 DUP4 PUSH2 0xFEB JUMP JUMPDEST SWAP5 PUSH1 0x20 SWAP4 SWAP1 SWAP4 ADD CALLDATALOAD SWAP4 POP POP POP JUMP JUMPDEST PUSH1 0x0 DUP1 PUSH1 0x0 PUSH1 0x60 DUP5 DUP7 SUB SLT ISZERO PUSH2 0x1046 JUMPI PUSH1 0x0 DUP1 REVERT JUMPDEST PUSH2 0x104F DUP5 PUSH2 0xFEB JUMP JUMPDEST SWAP3 POP PUSH2 0x105D PUSH1 0x20 DUP6 ADD PUSH2 0xFEB JUMP JUMPDEST SWAP2 POP PUSH1 0x40 DUP5 ADD CALLDATALOAD SWAP1 POP SWAP3 POP SWAP3 POP SWAP3 JUMP JUMPDEST PUSH1 0x0 PUSH1 0x20 DUP3 DUP5 SUB SLT ISZERO PUSH2 0x107F JUMPI PUSH1 0x0 DUP1 REVERT JUMPDEST PUSH2 0xF81 DUP3 PUSH2 0xFEB JUMP JUMPDEST PUSH1 0x0 PUSH1 0x20 DUP3 DUP5 SUB SLT ISZERO PUSH2 0x109A JUMPI PUSH1 0x0 DUP1 REVERT JUMPDEST POP CALLDATALOAD SWAP2 SWAP1 POP JUMP JUMPDEST PUSH1 0x0 DUP1 PUSH1 0x40 DUP4 DUP6 SUB SLT ISZERO PUSH2 0x10B4 JUMPI PUSH1 0x0 DUP1 REVERT JUMPDEST PUSH2 0x10BD DUP4 PUSH2 0xFEB JUMP JUMPDEST SWAP2 POP PUSH2 0x10CB PUSH1 0x20 DUP5 ADD PUSH2 0xFEB JUMP JUMPDEST SWAP1 POP SWAP3 POP SWAP3 SWAP1 POP JUMP JUMPDEST PUSH1 0x1 DUP2 DUP2 SHR SWAP1 DUP3 AND DUP1 PUSH2 0x10E8 JUMPI PUSH1 0x7F DUP3 AND SWAP2 POP JUMPDEST PUSH1 0x20 DUP3 LT DUP2 SUB PUSH2 0x1108 JUMPI PUSH4 0x4E487B71 PUSH1 0xE0 SHL PUSH1 0x0 MSTORE PUSH1 0x22 PUSH1 0x4 MSTORE PUSH1 0x24 PUSH1 0x0 REVERT JUMPDEST POP SWAP2 SWAP1 POP JUMP JUMPDEST PUSH4 0x4E487B71 PUSH1 0xE0 SHL PUSH1 0x0 MSTORE PUSH1 0x11 PUSH1 0x4 MSTORE PUSH1 0x24 PUSH1 0x0 REVERT JUMPDEST DUP1 DUP3 MUL DUP2 ISZERO DUP3 DUP3 DIV DUP5 EQ OR PUSH2 0x80E JUMPI PUSH2 0x80E PUSH2 0x110E JUMP JUMPDEST DUP1 DUP3 ADD DUP1 DUP3 GT ISZERO PUSH2 0x80E JUMPI PUSH2 0x80E PUSH2 0x110E JUMP JUMPDEST DUP2 DUP2 SUB DUP2 DUP2 GT ISZERO PUSH2 0x80E JUMPI PUSH2 0x80E PUSH2 0x110E JUMP INVALID LOG2 PUSH5 0x6970667358 0x22 SLT KECCAK256 SWAP2 TIMESTAMP 0xDF SLT PC 0x1E PUSH14 0x7129D3FC07AB2DDD35001FA68309 0xC SWAP9 0xDC SSTORE 0xDC CODECOPY XOR 0xEC 0xF6 0xBC 0xAA PUSH5 0x736F6C6343 STOP ADDMOD EQ STOP CALLER LOG2 PUSH5 0x6970667358 0x22 SLT KECCAK256 0xB6 0xD6 0xBF 0xAD DUP2 PUSH13 0xC8EA0467A03EEB7F56523943FA 0xD PUSH7 0x33890CADB2100A CODESIZE 0xDD CALLDATACOPY 0xA7 PUSH5 0x736F6C6343 STOP ADDMOD EQ STOP CALLER "},"methodIdentifiers":{"approveFarm(string,string,string,uint256,uint256)":"02a67116","approveFarmer(address)":"4b3cc6e5","approvedFarmers(address)":"2c133dac","farmIds(uint256)":"c374f057","farms(string)":"ac9f1276","getAllFarms()":"f9559774","getFarm(string)":"4b87ecae","owner()":"8da5cb5b","registerFarm(string,string,string,string,uint256,uint256)":"448c95f2","renounceOwnership()":"715018a6","transferOwnership(address)":"f2fde38b"}}}}}