{
  "_format": "hh-sol-artifact-1",
  "contractName": "FarmRegistry",
  "sourceName": "contracts/farms/FarmRegistry.sol",
  "abi": [
    {
      "inputs": [],
      "stateMutability": "nonpayable",
      "type": "constructor"
    },
    {
      "inputs": [
        {
          "internalType": "address",
          "name": "owner",
          "type": "address"
        }
      ],
      "name": "OwnableInvalidOwner",
      "type": "error"
    },
    {
      "inputs": [
        {
          "internalType": "address",
          "name": "account",
          "type": "address"
        }
      ],
      "name": "OwnableUnauthorizedAccount",
      "type": "error"
    },
    {
      "anonymous": false,
      "inputs": [
        {
          "indexed": true,
          "internalType": "string",
          "name": "farmId",
          "type": "string"
        },
        {
          "indexed": false,
          "internalType": "address",
          "name": "tokenAddress",
          "type": "address"
        }
      ],
      "name": "FarmApproved",
      "type": "event"
    },
    {
      "anonymous": false,
      "inputs": [
        {
          "indexed": true,
          "internalType": "string",
          "name": "farmId",
          "type": "string"
        },
        {
          "indexed": true,
          "internalType": "address",
          "name": "farmer",
          "type": "address"
        }
      ],
      "name": "FarmRegistered",
      "type": "event"
    },
    {
      "anonymous": false,
      "inputs": [
        {
          "indexed": true,
          "internalType": "address",
          "name": "farmer",
          "type": "address"
        }
      ],
      "name": "FarmerApproved",
      "type": "event"
    },
    {
      "anonymous": false,
      "inputs": [
        {
          "indexed": true,
          "internalType": "address",
          "name": "previousOwner",
          "type": "address"
        },
        {
          "indexed": true,
          "internalType": "address",
          "name": "newOwner",
          "type": "address"
        }
      ],
      "name": "OwnershipTransferred",
      "type": "event"
    },
    {
      "inputs": [
        {
          "internalType": "string",
          "name": "_farmId",
          "type": "string"
        },
        {
          "internalType": "string",
          "name": "_tokenName",
          "type": "string"
        },
        {
          "internalType": "string",
          "name": "_tokenSymbol",
          "type": "string"
        },
        {
          "internalType": "uint256",
          "name": "_tokenPrice",
          "type": "uint256"
        },
        {
          "internalType": "uint256",
          "name": "_maxSupply",
          "type": "uint256"
        }
      ],
      "name": "approveFarm",
      "outputs": [],
      "stateMutability": "nonpayable",
      "type": "function"
    },
    {
      "inputs": [
        {
          "internalType": "address",
          "name": "_farmer",
          "type": "address"
        }
      ],
      "name": "approveFarmer",
      "outputs": [],
      "stateMutability": "nonpayable",
      "type": "function"
    },
    {
      "inputs": [
        {
          "internalType": "address",
          "name": "",
          "type": "address"
        }
      ],
      "name": "approvedFarmers",
      "outputs": [
        {
          "internalType": "bool",
          "name": "",
          "type": "bool"
        }
      ],
      "stateMutability": "view",
      "type": "function"
    },
    {
      "inputs": [
        {
          "internalType": "uint256",
          "name": "",
          "type": "uint256"
        }
      ],
      "name": "farmIds",
      "outputs": [
        {
          "internalType": "string",
          "name": "",
          "type": "string"
        }
      ],
      "stateMutability": "view",
      "type": "function"
    },
    {
      "inputs": [
        {
          "internalType": "string",
          "name": "",
          "type": "string"
        }
      ],
      "name": "farms",
      "outputs": [
        {
          "internalType": "string",
          "name": "farmId",
          "type": "string"
        },
        {
          "internalType": "string",
          "name": "name",
          "type": "string"
        },
        {
          "internalType": "string",
          "name": "cropType",
          "type": "string"
        },
        {
          "internalType": "string",
          "name": "location",
          "type": "string"
        },
        {
          "internalType": "address",
          "name": "farmer",
          "type": "address"
        },
        {
          "internalType": "address",
          "name": "tokenAddress",
          "type": "address"
        },
        {
          "internalType": "uint256",
          "name": "fundingGoal",
          "type": "uint256"
        },
        {
          "internalType": "enum FarmRegistry.FarmStatus",
          "name": "status",
          "type": "uint8"
        },
        {
          "internalType": "uint256",
          "name": "createdAt",
          "type": "uint256"
        }
      ],
      "stateMutability": "view",
      "type": "function"
    },
    {
      "inputs": [],
      "name": "getAllFarms",
      "outputs": [
        {
          "internalType": "string[]",
          "name": "",
          "type": "string[]"
        }
      ],
      "stateMutability": "view",
      "type": "function"
    },
    {
      "inputs": [
        {
          "internalType": "string",
          "name": "_farmId",
          "type": "string"
        }
      ],
      "name": "getFarm",
      "outputs": [
        {
          "components": [
            {
              "internalType": "string",
              "name": "farmId",
              "type": "string"
            },
            {
              "internalType": "string",
              "name": "name",
              "type": "string"
            },
            {
              "internalType": "string",
              "name": "cropType",
              "type": "string"
            },
            {
              "internalType": "string",
              "name": "location",
              "type": "string"
            },
            {
              "internalType": "address",
              "name": "farmer",
              "type": "address"
            },
            {
              "internalType": "address",
              "name": "tokenAddress",
              "type": "address"
            },
            {
              "internalType": "uint256",
              "name": "fundingGoal",
              "type": "uint256"
            },
            {
              "internalType": "enum FarmRegistry.FarmStatus",
              "name": "status",
              "type": "uint8"
            },
            {
              "internalType": "uint256",
              "name": "createdAt",
              "type": "uint256"
            }
          ],
          "internalType": "struct FarmRegistry.Farm",
          "name": "",
          "type": "tuple"
        }
      ],
      "stateMutability": "view",
      "type": "function"
    },
    {
      "inputs": [],
      "name": "owner",
      "outputs": [
        {
          "internalType": "address",
          "name": "",
          "type": "address"
        }
      ],
      "stateMutability": "view",
      "type": "function"
    },
    {
      "inputs": [
        {
          "internalType": "string",
          "name": "_farmId",
          "type": "string"
        },
        {
          "internalType": "string",
          "name": "_name",
          "type": "string"
        },
        {
          "internalType": "string",
          "name": "_cropType",
          "type": "string"
        },
        {
          "internalType": "string",
          "name": "_location",
          "type": "string"
        },
        {
          "internalType": "uint256",
          "name": "_fundingGoal",
          "type": "uint256"
        },
        {
          "internalType": "uint256",
          "name": "_harvestDate",
          "type": "uint256"
        }
      ],
      "name": "registerFarm",
      "outputs": [],
      "stateMutability": "nonpayable",
      "type": "function"
    },
    {
      "inputs": [],
      "name": "renounceOwnership",
      "outputs": [],
      "stateMutability": "nonpayable",
      "type": "function"
    },
    {
      "inputs": [
        {
          "internalType": "address",
          "name": "newOwner",
          "type": "address"
        }
      ],
      "name": "transferOwnership",
      "outputs": [],
      "stateMutability": "nonpayable",
      "type": "function"
    }
  ],
  "bytecode": "0x608060405234801561001057600080fd5b50338061003757604051631e4fbdf760e01b81526000600482015260240160405180910390fd5b61004081610046565b50610096565b600080546001600160a01b038381166001600160a01b0319831681178455604051919092169283917f8be0079c531659141344cd1fd0a4f28419497f9722a3daafe3b4186f6b6457e09190a35050565b612d6f806100a56000396000f3fe60806040523480156200001157600080fd5b5060043610620000b75760003560e01c8063715018a6116200007a578063715018a614620001645780638da5cb5b146200016e578063ac9f1276146200018a578063c374f05714620001b8578063f2fde38b14620001de578063f955977414620001f557600080fd5b806302a6711614620000bc5780632c133dac14620000d5578063448c95f214620001105780634b3cc6e514620001275780634b87ecae146200013e575b600080fd5b620000d3620000cd36600462000fb9565b6200020e565b005b620000fb620000e63660046200105d565b60026020526000908152604090205460ff1681565b60405190151581526020015b60405180910390f35b620000d3620001213660046200108f565b62000382565b620000d3620001383660046200105d565b6200060e565b620001556200014f3660046200115b565b62000664565b60405162000107919062001229565b620000d362000976565b6000546040516001600160a01b03909116815260200162000107565b620001a16200019b3660046200115b565b6200098e565b60405162000107999897969594939291906200130e565b620001cf620001c9366004620013ac565b62000c33565b604051620001079190620013c6565b620000d3620001ef3660046200105d565b62000ce8565b620001ff62000d2c565b604051620001079190620013db565b6200021862000e0f565b60006001866040516200022c919062001441565b90815260405190819003602001902090506000600782015460ff1660048111156200025b576200025b620011f0565b146200029c5760405162461bcd60e51b815260206004820152600b60248201526a4e6f742070656e64696e6760a81b60448201526064015b60405180910390fd5b6000858584868a86600101876002018860030189600601546000604051620002c49062000e8e565b620002d99a9998979695949392919062001520565b604051809103906000f080158015620002f6573d6000803e3d6000fd5b506005830180546001600160a01b0319166001600160a01b03831617905560078301805460ff191660011790556040519091506200033690889062001441565b6040519081900381206001600160a01b0383168252907f4b5d1bcb296ef4c6e504c0f1849a5b9c047b99d50305918f8e76438f05a49d1c9060200160405180910390a250505050505050565b3360009081526002602052604090205460ff16620003d95760405162461bcd60e51b81526020600482015260136024820152722737ba1030b8383937bb32b2103330b936b2b960691b604482015260640162000293565b600186604051620003eb919062001441565b908152604051908190036020019020805462000407906200145f565b159050620004465760405162461bcd60e51b815260206004820152600b60248201526a4661726d2065786973747360a81b604482015260640162000293565b60408051610120810182528781526020810187905280820186905260608101859052336080820152600060a0820181905260c0820185905260e08201524261010082015290516001906200049c90899062001441565b90815260405190819003602001902081518190620004bb90826200161f565b5060208201516001820190620004d290826200161f565b5060408201516002820190620004e990826200161f565b50606082015160038201906200050090826200161f565b506080820151600480830180546001600160a01b039384166001600160a01b03199182161790915560a08501516005850180549190941691161790915560c0830151600683015560e08301516007830180549192909160ff1916906001908490811115620005725762000572620011f0565b02179055506101009190910151600890910155600380546001810182556000919091527fc2575a0e9e593c00f959f8c92f12db2869c3395a3b0502d05e2516446f71f85b01620005c387826200161f565b506040513390620005d690889062001441565b604051908190038120907f54c0e5fcc6078cce5bf275e6569132e9bfb374d77df38db95adce71f95c3656b90600090a3505050505050565b6200061862000e0f565b6001600160a01b038116600081815260026020526040808220805460ff19166001179055517f3547bca6e79a5be28978b935492502bbbc9e6dcf031636de11dfce9d1f27997b9190a250565b6200066e62000e9c565b60018260405162000680919062001441565b908152602001604051809103902060405180610120016040529081600082018054620006ac906200145f565b80601f0160208091040260200160405190810160405280929190818152602001828054620006da906200145f565b80156200072b5780601f10620006ff576101008083540402835291602001916200072b565b820191906000526020600020905b8154815290600101906020018083116200070d57829003601f168201915b5050505050815260200160018201805462000746906200145f565b80601f016020809104026020016040519081016040528092919081815260200182805462000774906200145f565b8015620007c55780601f106200079957610100808354040283529160200191620007c5565b820191906000526020600020905b815481529060010190602001808311620007a757829003601f168201915b50505050508152602001600282018054620007e0906200145f565b80601f01602080910402602001604051908101604052809291908181526020018280546200080e906200145f565b80156200085f5780601f1062000833576101008083540402835291602001916200085f565b820191906000526020600020905b8154815290600101906020018083116200084157829003601f168201915b505050505081526020016003820180546200087a906200145f565b80601f0160208091040260200160405190810160405280929190818152602001828054620008a8906200145f565b8015620008f95780601f10620008cd57610100808354040283529160200191620008f9565b820191906000526020600020905b815481529060010190602001808311620008db57829003601f168201915b50505091835250506004828101546001600160a01b039081166020840152600584015416604083015260068301546060830152600783015460809092019160ff16908111156200094d576200094d620011f0565b6004811115620009615762000961620011f0565b81526020016008820154815250509050919050565b6200098062000e0f565b6200098c600062000e3e565b565b8051602081830181018051600182529282019190930120915280548190620009b6906200145f565b80601f0160208091040260200160405190810160405280929190818152602001828054620009e4906200145f565b801562000a355780601f1062000a095761010080835404028352916020019162000a35565b820191906000526020600020905b81548152906001019060200180831162000a1757829003601f168201915b50505050509080600101805462000a4c906200145f565b80601f016020809104026020016040519081016040528092919081815260200182805462000a7a906200145f565b801562000acb5780601f1062000a9f5761010080835404028352916020019162000acb565b820191906000526020600020905b81548152906001019060200180831162000aad57829003601f168201915b50505050509080600201805462000ae2906200145f565b80601f016020809104026020016040519081016040528092919081815260200182805462000b10906200145f565b801562000b615780601f1062000b355761010080835404028352916020019162000b61565b820191906000526020600020905b81548152906001019060200180831162000b4357829003601f168201915b50505050509080600301805462000b78906200145f565b80601f016020809104026020016040519081016040528092919081815260200182805462000ba6906200145f565b801562000bf75780601f1062000bcb5761010080835404028352916020019162000bf7565b820191906000526020600020905b81548152906001019060200180831162000bd957829003601f168201915b505050600484015460058501546006860154600787015460089097015495966001600160a01b0393841696929093169450925060ff9091169089565b6003818154811062000c4457600080fd5b90600052602060002001600091509050805462000c61906200145f565b80601f016020809104026020016040519081016040528092919081815260200182805462000c8f906200145f565b801562000ce05780601f1062000cb45761010080835404028352916020019162000ce0565b820191906000526020600020905b81548152906001019060200180831162000cc257829003601f168201915b505050505081565b62000cf262000e0f565b6001600160a01b03811662000d1e57604051631e4fbdf760e01b81526000600482015260240162000293565b62000d298162000e3e565b50565b60606003805480602002602001604051908101604052809291908181526020016000905b8282101562000e0657838290600052602060002001805462000d72906200145f565b80601f016020809104026020016040519081016040528092919081815260200182805462000da0906200145f565b801562000df15780601f1062000dc55761010080835404028352916020019162000df1565b820191906000526020600020905b81548152906001019060200180831162000dd357829003601f168201915b50505050508152602001906001019062000d50565b50505050905090565b6000546001600160a01b031633146200098c5760405163118cdaa760e01b815233600482015260240162000293565b600080546001600160a01b038381166001600160a01b0319831681178455604051919092169283917f8be0079c531659141344cd1fd0a4f28419497f9722a3daafe3b4186f6b6457e09190a35050565b61164d80620016ed83390190565b6040518061012001604052806060815260200160608152602001606081526020016060815260200160006001600160a01b0316815260200160006001600160a01b03168152602001600081526020016000600481111562000f015762000f01620011f0565b8152602001600081525090565b634e487b7160e01b600052604160045260246000fd5b600082601f83011262000f3657600080fd5b813567ffffffffffffffff8082111562000f545762000f5462000f0e565b604051601f8301601f19908116603f0116810190828211818310171562000f7f5762000f7f62000f0e565b8160405283815286602085880101111562000f9957600080fd5b836020870160208301376000602085830101528094505050505092915050565b600080600080600060a0868803121562000fd257600080fd5b853567ffffffffffffffff8082111562000feb57600080fd5b62000ff989838a0162000f24565b965060208801359150808211156200101057600080fd5b6200101e89838a0162000f24565b955060408801359150808211156200103557600080fd5b50620010448882890162000f24565b9598949750949560608101359550608001359392505050565b6000602082840312156200107057600080fd5b81356001600160a01b03811681146200108857600080fd5b9392505050565b60008060008060008060c08789031215620010a957600080fd5b863567ffffffffffffffff80821115620010c257600080fd5b620010d08a838b0162000f24565b97506020890135915080821115620010e757600080fd5b620010f58a838b0162000f24565b965060408901359150808211156200110c57600080fd5b6200111a8a838b0162000f24565b955060608901359150808211156200113157600080fd5b506200114089828a0162000f24565b9350506080870135915060a087013590509295509295509295565b6000602082840312156200116e57600080fd5b813567ffffffffffffffff8111156200118657600080fd5b620011948482850162000f24565b949350505050565b60005b83811015620011b95781810151838201526020016200119f565b50506000910152565b60008151808452620011dc8160208601602086016200119c565b601f01601f19169290920160200192915050565b634e487b7160e01b600052602160045260246000fd5b600581106200122557634e487b7160e01b600052602160045260246000fd5b9052565b60208152600082516101208060208501526200124a610140850183620011c2565b91506020850151601f19808685030160408701526200126a8483620011c2565b93506040870151915080868503016060870152620012898483620011c2565b9350606087015191508086850301608087015250620012a98382620011c2565b9250506080850151620012c760a08601826001600160a01b03169052565b5060a08501516001600160a01b03811660c08601525060c085015160e085015260e0850151610100620012fd8187018362001206565b959095015193019290925250919050565b6000610120808352620013248184018d620011c2565b905082810360208401526200133a818c620011c2565b9050828103604084015262001350818b620011c2565b9050828103606084015262001366818a620011c2565b6001600160a01b038981166080860152881660a085015260c08401879052915062001397905060e083018562001206565b826101008301529a9950505050505050505050565b600060208284031215620013bf57600080fd5b5035919050565b602081526000620010886020830184620011c2565b6000602080830181845280855180835260408601915060408160051b870101925083870160005b828110156200143457603f1988860301845262001421858351620011c2565b9450928501929085019060010162001402565b5092979650505050505050565b60008251620014558184602087016200119c565b9190910192915050565b600181811c908216806200147457607f821691505b6020821081036200149557634e487b7160e01b600052602260045260246000fd5b50919050565b60008154620014aa816200145f565b808552602060018381168015620014ca5760018114620014e55762001515565b60ff1985168884015283151560051b88018301955062001515565b866000528260002060005b858110156200150d5781548a8201860152908301908401620014f0565b890184019650505b505050505092915050565b6000610140808352620015368184018e620011c2565b905082810360208401526200154c818d620011c2565b90508a604084015289606084015282810360808401526200156e818a620011c2565b905082810360a08401526200158481896200149b565b905082810360c08401526200159a81886200149b565b905082810360e0840152620015b081876200149b565b6101008401959095525050610120015298975050505050505050565b601f8211156200161a57600081815260208120601f850160051c81016020861015620015f55750805b601f850160051c820191505b81811015620016165782815560010162001601565b5050505b505050565b815167ffffffffffffffff8111156200163c576200163c62000f0e565b62001654816200164d84546200145f565b84620015cc565b602080601f8311600181146200168c5760008415620016735750858301515b600019600386901b1c1916600185901b17855562001616565b600085815260208120601f198616915b82811015620016bd578886015182559484019460019091019084016200169c565b5085821015620016dc5787850151600019600388901b60f8161c191681555b5050505050600190811b0190555056fe60a06040523480156200001157600080fd5b506040516200164d3803806200164d833981016040819052620000349162000207565b338a8a6003620000458382620003c7565b506004620000548282620003c7565b5050506001600160a01b0381166200008657604051631e4fbdf760e01b81526000600482015260240160405180910390fd5b6200009181620000f0565b50608088905260068790556007620000aa8782620003c7565b506008620000b98682620003c7565b506009620000c88582620003c7565b50600a620000d78482620003c7565b50600b91909155600c5550620004939650505050505050565b600580546001600160a01b038381166001600160a01b0319831681179093556040519116919082907f8be0079c531659141344cd1fd0a4f28419497f9722a3daafe3b4186f6b6457e090600090a35050565b634e487b7160e01b600052604160045260246000fd5b600082601f8301126200016a57600080fd5b81516001600160401b038082111562000187576200018762000142565b604051601f8301601f19908116603f01168101908282118183101715620001b257620001b262000142565b81604052838152602092508683858801011115620001cf57600080fd5b600091505b83821015620001f35785820183015181830184015290820190620001d4565b600093810190920192909252949350505050565b6000806000806000806000806000806101408b8d0312156200022857600080fd5b8a516001600160401b03808211156200024057600080fd5b6200024e8e838f0162000158565b9b5060208d01519150808211156200026557600080fd5b620002738e838f0162000158565b9a5060408d0151995060608d0151985060808d01519150808211156200029857600080fd5b620002a68e838f0162000158565b975060a08d0151915080821115620002bd57600080fd5b620002cb8e838f0162000158565b965060c08d0151915080821115620002e257600080fd5b620002f08e838f0162000158565b955060e08d01519150808211156200030757600080fd5b50620003168d828e0162000158565b9350506101008b015191506101208b015190509295989b9194979a5092959850565b600181811c908216806200034d57607f821691505b6020821081036200036e57634e487b7160e01b600052602260045260246000fd5b50919050565b601f821115620003c257600081815260208120601f850160051c810160208610156200039d5750805b601f850160051c820191505b81811015620003be57828155600101620003a9565b5050505b505050565b81516001600160401b03811115620003e357620003e362000142565b620003fb81620003f4845462000338565b8462000374565b602080601f8311600181146200043357600084156200041a5750858301515b600019600386901b1c1916600185901b178555620003be565b600085815260208120601f198616915b82811015620004645788860151825594840194600190910190840162000443565b5085821015620004835787850151600019600388901b60f8161c191681555b5050505050600190811b01905550565b608051611197620004b6600039600081816103ca01526109ef01526111976000f3fe6080604052600436106101665760003560e01c806370a08231116100d15780638da5cb5b1161008a578063d5abeb0111610064578063d5abeb01146103b8578063dd62ed3e146103ec578063ed0ea00314610432578063f2fde38b1461045f57600080fd5b80638da5cb5b1461035b57806395d89b4114610383578063a9059cbb1461039857600080fd5b806370a08231146102bb578063715018a6146102f157806375513802146103065780637a3a0e841461031c5780637b97008d146103325780637ff9b5961461034557600080fd5b8063278de00011610123578063278de00014610241578063313ce567146102565780633ccfd60b14610272578063516f279e1461028957806362b1f2ed1461029e57806365c3c9b7146102b357600080fd5b806303e781031461016b57806306fdde031461019657806309434f28146101ab578063095ea7b3146101d257806318160ddd1461020257806323b872dd14610221575b600080fd5b34801561017757600080fd5b5061018061047f565b60405161018d9190610f6e565b60405180910390f35b3480156101a257600080fd5b5061018061050d565b3480156101b757600080fd5b506101c061059f565b60405161018d96959493929190610f88565b3480156101de57600080fd5b506101f26101ed366004611007565b6107fa565b604051901515815260200161018d565b34801561020e57600080fd5b506002545b60405190815260200161018d565b34801561022d57600080fd5b506101f261023c366004611031565b610814565b34801561024d57600080fd5b50610180610838565b34801561026257600080fd5b506040516012815260200161018d565b34801561027e57600080fd5b50610287610845565b005b34801561029557600080fd5b50610180610889565b3480156102aa57600080fd5b50610180610896565b6102876108a3565b3480156102c757600080fd5b506102136102d636600461106d565b6001600160a01b031660009081526020819052604090205490565b3480156102fd57600080fd5b5061028761092a565b34801561031257600080fd5b50610213600c5481565b34801561032857600080fd5b50610213600b5481565b610287610340366004611088565b61093e565b34801561035157600080fd5b5061021360065481565b34801561036757600080fd5b506005546040516001600160a01b03909116815260200161018d565b34801561038f57600080fd5b50610180610b2c565b3480156103a457600080fd5b506101f26103b3366004611007565b610b3b565b3480156103c457600080fd5b506102137f000000000000000000000000000000000000000000000000000000000000000081565b3480156103f857600080fd5b506102136104073660046110a1565b6001600160a01b03918216600090815260016020908152604080832093909416825291909152205490565b34801561043e57600080fd5b5061021361044d36600461106d565b600d6020526000908152604090205481565b34801561046b57600080fd5b5061028761047a36600461106d565b610b49565b6008805461048c906110d4565b80601f01602080910402602001604051908101604052809291908181526020018280546104b8906110d4565b80156105055780601f106104da57610100808354040283529160200191610505565b820191906000526020600020905b8154815290600101906020018083116104e857829003601f168201915b505050505081565b60606003805461051c906110d4565b80601f0160208091040260200160405190810160405280929190818152602001828054610548906110d4565b80156105955780601f1061056a57610100808354040283529160200191610595565b820191906000526020600020905b81548152906001019060200180831161057857829003601f168201915b5050505050905090565b606080606080600080600760086009600a600b54600c548580546105c2906110d4565b80601f01602080910402602001604051908101604052809291908181526020018280546105ee906110d4565b801561063b5780601f106106105761010080835404028352916020019161063b565b820191906000526020600020905b81548152906001019060200180831161061e57829003601f168201915b5050505050955084805461064e906110d4565b80601f016020809104026020016040519081016040528092919081815260200182805461067a906110d4565b80156106c75780601f1061069c576101008083540402835291602001916106c7565b820191906000526020600020905b8154815290600101906020018083116106aa57829003601f168201915b505050505094508380546106da906110d4565b80601f0160208091040260200160405190810160405280929190818152602001828054610706906110d4565b80156107535780601f1061072857610100808354040283529160200191610753565b820191906000526020600020905b81548152906001019060200180831161073657829003601f168201915b50505050509350828054610766906110d4565b80601f0160208091040260200160405190810160405280929190818152602001828054610792906110d4565b80156107df5780601f106107b4576101008083540402835291602001916107df565b820191906000526020600020905b8154815290600101906020018083116107c257829003601f168201915b50505050509250955095509550955095509550909192939495565b600033610808818585610b84565b60019150505b92915050565b600033610822858285610b96565b61082d858585610c15565b506001949350505050565b6007805461048c906110d4565b61084d610c74565b6005546040516001600160a01b03909116904780156108fc02916000818181858888f19350505050158015610886573d6000803e3d6000fd5b50565b600a805461048c906110d4565b6009805461048c906110d4565b6108ab610c74565b600034116108f55760405162461bcd60e51b81526020600482015260126024820152714e6f20686172766573742072657475726e7360701b60448201526064015b60405180910390fd5b6040513481527f3c62f024362fa897ebc89aaa2cf3aefa1f6184f2733aabf1b1f90c690d7548ac9060200160405180910390a1565b610932610c74565b61093c6000610ca1565b565b6000811161099a5760405162461bcd60e51b815260206004820152602360248201527f546f6b656e20616d6f756e74206d75737420626520677265617465722074686160448201526206e20360ec1b60648201526084016108ec565b6006546109a79082611124565b3410156109ed5760405162461bcd60e51b8152602060048201526014602482015273125b9cdd59999a58da595b9d081c185e5b595b9d60621b60448201526064016108ec565b7f000000000000000000000000000000000000000000000000000000000000000081610a1860025490565b610a22919061113b565b1115610a655760405162461bcd60e51b815260206004820152601260248201527145786365656473206d617820737570706c7960701b60448201526064016108ec565b336000908152600d602052604081208054349290610a8490849061113b565b90915550610a9490503382610cf3565b604080513481526020810183905233917f8fafebcaf9d154343dad25669bfa277f4fbacd7ac6b0c4fed522580e040a0f33910160405180910390a2600654610adc9082611124565b3411156108865760065433906108fc90610af69084611124565b610b00903461114e565b6040518115909202916000818181858888f19350505050158015610b28573d6000803e3d6000fd5b5050565b60606004805461051c906110d4565b600033610808818585610c15565b610b51610c74565b6001600160a01b038116610b7b57604051631e4fbdf760e01b8152600060048201526024016108ec565b61088681610ca1565b610b918383836001610d29565b505050565b6001600160a01b03838116600090815260016020908152604080832093861683529290522054600019811015610c0f5781811015610c0057604051637dc7a0d960e11b81526001600160a01b038416600482015260248101829052604481018390526064016108ec565b610c0f84848484036000610d29565b50505050565b6001600160a01b038316610c3f57604051634b637e8f60e11b8152600060048201526024016108ec565b6001600160a01b038216610c695760405163ec442f0560e01b8152600060048201526024016108ec565b610b91838383610dfe565b6005546001600160a01b0316331461093c5760405163118cdaa760e01b81523360048201526024016108ec565b600580546001600160a01b038381166001600160a01b0319831681179093556040519116919082907f8be0079c531659141344cd1fd0a4f28419497f9722a3daafe3b4186f6b6457e090600090a35050565b6001600160a01b038216610d1d5760405163ec442f0560e01b8152600060048201526024016108ec565b610b2860008383610dfe565b6001600160a01b038416610d535760405163e602df0560e01b8152600060048201526024016108ec565b6001600160a01b038316610d7d57604051634a1406b160e11b8152600060048201526024016108ec565b6001600160a01b0380851660009081526001602090815260408083209387168352929052208290558015610c0f57826001600160a01b0316846001600160a01b03167f8c5be1e5ebec7d5bd14f71427d1e84f3dd0314c0f7b2291e5b200ac8c7c3b92584604051610df091815260200190565b60405180910390a350505050565b6001600160a01b038316610e29578060026000828254610e1e919061113b565b90915550610e9b9050565b6001600160a01b03831660009081526020819052604090205481811015610e7c5760405163391434e360e21b81526001600160a01b038516600482015260248101829052604481018390526064016108ec565b6001600160a01b03841660009081526020819052604090209082900390555b6001600160a01b038216610eb757600280548290039055610ed6565b6001600160a01b03821660009081526020819052604090208054820190555b816001600160a01b0316836001600160a01b03167fddf252ad1be2c89b69c2b068fc378daa952ba7f163c4a11628f55a4df523b3ef83604051610f1b91815260200190565b60405180910390a3505050565b6000815180845260005b81811015610f4e57602081850181015186830182015201610f32565b506000602082860101526020601f19601f83011685010191505092915050565b602081526000610f816020830184610f28565b9392505050565b60c081526000610f9b60c0830189610f28565b8281036020840152610fad8189610f28565b90508281036040840152610fc18188610f28565b90508281036060840152610fd58187610f28565b6080840195909552505060a00152949350505050565b80356001600160a01b038116811461100257600080fd5b919050565b6000806040838503121561101a57600080fd5b61102383610feb565b946020939093013593505050565b60008060006060848603121561104657600080fd5b61104f84610feb565b925061105d60208501610feb565b9150604084013590509250925092565b60006020828403121561107f57600080fd5b610f8182610feb565b60006020828403121561109a57600080fd5b5035919050565b600080604083850312156110b457600080fd5b6110bd83610feb565b91506110cb60208401610feb565b90509250929050565b600181811c908216806110e857607f821691505b60208210810361110857634e487b7160e01b600052602260045260246000fd5b50919050565b634e487b7160e01b600052601160045260246000fd5b808202811582820484141761080e5761080e61110e565b8082018082111561080e5761080e61110e565b8181038181111561080e5761080e61110e56fea26469706673582212209142df12581e6d7129d3fc07ab2ddd35001fa683090c98dc55dc3918ecf6bcaa64736f6c63430008140033a2646970667358221220b6d6bfad816cc8ea0467a03eeb7f56523943fa0d6633890cadb2100a38dd37a764736f6c63430008140033",
  "linkReferences": {},
  "deployedLinkReferences": {}
}