{
  "_format": "hh-sol-artifact-1",
  "contractName": "FarmToken",
  "sourceName": "contracts/tokens/FarmToken.sol",
  "abi": [
    {
      "inputs": [
        {
          "internalType": "string",
          "name": "_name",
          "type": "string"
        },
        {
          "internalType": "string",
          "name": "_symbol",
          "type": "string"
        },
        {
          "internalType": "uint256",
          "name": "_maxSupply",
          "type": "uint256"
        },
        {
          "internalType": "uint256",
          "name": "_tokenPrice",
          "type": "uint256"
        },
        {
          "internalType": "string",
          "name": "_farmId",
          "type": "string"
        },
        {
          "internalType": "string",
          "name": "_farmName",
          "type": "string"
        },
        {
          "internalType": "string",
          "name": "_cropType",
          "type": "string"
        },
        {
          "internalType": "string",
          "name": "_location",
          "type": "string"
        },
        {
          "internalType": "uint256",
          "name": "_fundingGoal",
          "type": "uint256"
        },
        {
          "internalType": "uint256",
          "name": "_harvestDate",
          "type": "uint256"
        }
      ],
      "stateMutability": "nonpayable",
      "type": "constructor"
    },
    {
      "inputs": [
        {
          "internalType": "address",
          "name": "spender",
          "type": "address"
        },
        {
          "internalType": "uint256",
          "name": "allowance",
          "type": "uint256"
        },
        {
          "internalType": "uint256",
          "name": "needed",
          "type": "uint256"
        }
      ],
      "name": "ERC20InsufficientAllowance",
      "type": "error"
    },
    {
      "inputs": [
        {
          "internalType": "address",
          "name": "sender",
          "type": "address"
        },
        {
          "internalType": "uint256",
          "name": "balance",
          "type": "uint256"
        },
        {
          "internalType": "uint256",
          "name": "needed",
          "type": "uint256"
        }
      ],
      "name": "ERC20InsufficientBalance",
      "type": "error"
    },
    {
      "inputs": [
        {
          "internalType": "address",
          "name": "approver",
          "type": "address"
        }
      ],
      "name": "ERC20InvalidApprover",
      "type": "error"
    },
    {
      "inputs": [
        {
          "internalType": "address",
          "name": "receiver",
          "type": "address"
        }
      ],
      "name": "ERC20InvalidReceiver",
      "type": "error"
    },
    {
      "inputs": [
        {
          "internalType": "address",
          "name": "sender",
          "type": "address"
        }
      ],
      "name": "ERC20InvalidSender",
      "type": "error"
    },
    {
      "inputs": [
        {
          "internalType": "address",
          "name": "spender",
          "type": "address"
        }
      ],
      "name": "ERC20InvalidSpender",
      "type": "error"
    },
    {
      "inputs": [
        {
          "internalType": "address",
          "name": "owner",
          "type": "address"
        }
      ],
      "name": "OwnableInvalidOwner",
      "type": "error"
    },
    {
      "inputs": [
        {
          "internalType": "address",
          "name": "account",
          "type": "address"
        }
      ],
      "name": "OwnableUnauthorizedAccount",
      "type": "error"
    },
    {
      "anonymous": false,
      "inputs": [
        {
          "indexed": true,
          "internalType": "address",
          "name": "owner",
          "type": "address"
        },
        {
          "indexed": true,
          "internalType": "address",
          "name": "spender",
          "type": "address"
        },
        {
          "indexed": false,
          "internalType": "uint256",
          "name": "value",
          "type": "uint256"
        }
      ],
      "name": "Approval",
      "type": "event"
    },
    {
      "anonymous": false,
      "inputs": [
        {
          "indexed": false,
          "internalType": "uint256",
          "name": "totalReturn",
          "type": "uint256"
        }
      ],
      "name": "HarvestCompleted",
      "type": "event"
    },
    {
      "anonymous": false,
      "inputs": [
        {
          "indexed": true,
          "internalType": "address",
          "name": "previousOwner",
          "type": "address"
        },
        {
          "indexed": true,
          "internalType": "address",
          "name": "newOwner",
          "type": "address"
        }
      ],
      "name": "OwnershipTransferred",
      "type": "event"
    },
    {
      "anonymous": false,
      "inputs": [
        {
          "indexed": true,
          "internalType": "address",
          "name": "investor",
          "type": "address"
        },
        {
          "indexed": false,
          "internalType": "uint256",
          "name": "amount",
          "type": "uint256"
        },
        {
          "indexed": false,
          "internalType": "uint256",
          "name": "tokens",
          "type": "uint256"
        }
      ],
      "name": "TokensPurchased",
      "type": "event"
    },
    {
      "anonymous": false,
      "inputs": [
        {
          "indexed": true,
          "internalType": "address",
          "name": "from",
          "type": "address"
        },
        {
          "indexed": true,
          "internalType": "address",
          "name": "to",
          "type": "address"
        },
        {
          "indexed": false,
          "internalType": "uint256",
          "name": "value",
          "type": "uint256"
        }
      ],
      "name": "Transfer",
      "type": "event"
    },
    {
      "inputs": [
        {
          "internalType": "address",
          "name": "owner",
          "type": "address"
        },
        {
          "internalType": "address",
          "name": "spender",
          "type": "address"
        }
      ],
      "name": "allowance",
      "outputs": [
        {
          "internalType": "uint256",
          "name": "",
          "type": "uint256"
        }
      ],
      "stateMutability": "view",
      "type": "function"
    },
    {
      "inputs": [
        {
          "internalType": "address",
          "name": "spender",
          "type": "address"
        },
        {
          "internalType": "uint256",
          "name": "value",
          "type": "uint256"
        }
      ],
      "name": "approve",
      "outputs": [
        {
          "internalType": "bool",
          "name": "",
          "type": "bool"
        }
      ],
      "stateMutability": "nonpayable",
      "type": "function"
    },
    {
      "inputs": [
        {
          "internalType": "address",
          "name": "account",
          "type": "address"
        }
      ],
      "name": "balanceOf",
      "outputs": [
        {
          "internalType": "uint256",
          "name": "",
          "type": "uint256"
        }
      ],
      "stateMutability": "view",
      "type": "function"
    },
    {
      "inputs": [],
      "name": "completeHarvest",
      "outputs": [],
      "stateMutability": "payable",
      "type": "function"
    },
    {
      "inputs": [],
      "name": "cropType",
      "outputs": [
        {
          "internalType": "string",
          "name": "",
          "type": "string"
        }
      ],
      "stateMutability": "view",
      "type": "function"
    },
    {
      "inputs": [],
      "name": "decimals",
      "outputs": [
        {
          "internalType": "uint8",
          "name": "",
          "type": "uint8"
        }
      ],
      "stateMutability": "view",
      "type": "function"
    },
    {
      "inputs": [],
      "name": "farmId",
      "outputs": [
        {
          "internalType": "string",
          "name": "",
          "type": "string"
        }
      ],
      "stateMutability": "view",
      "type": "function"
    },
    {
      "inputs": [],
      "name": "farmName",
      "outputs": [
        {
          "internalType": "string",
          "name": "",
          "type": "string"
        }
      ],
      "stateMutability": "view",
      "type": "function"
    },
    {
      "inputs": [],
      "name": "fundingGoal",
      "outputs": [
        {
          "internalType": "uint256",
          "name": "",
          "type": "uint256"
        }
      ],
      "stateMutability": "view",
      "type": "function"
    },
    {
      "inputs": [],
      "name": "getFarmInfo",
      "outputs": [
        {
          "internalType": "string",
          "name": "",
          "type": "string"
        },
        {
          "internalType": "string",
          "name": "",
          "type": "string"
        },
        {
          "internalType": "string",
          "name": "",
          "type": "string"
        },
        {
          "internalType": "string",
          "name": "",
          "type": "string"
        },
        {
          "internalType": "uint256",
          "name": "",
          "type": "uint256"
        },
        {
          "internalType": "uint256",
          "name": "",
          "type": "uint256"
        }
      ],
      "stateMutability": "view",
      "type": "function"
    },
    {
      "inputs": [],
      "name": "harvestDate",
      "outputs": [
        {
          "internalType": "uint256",
          "name": "",
          "type": "uint256"
        }
      ],
      "stateMutability": "view",
      "type": "function"
    },
    {
      "inputs": [
        {
          "internalType": "address",
          "name": "",
          "type": "address"
        }
      ],
      "name": "investmentAmount",
      "outputs": [
        {
          "internalType": "uint256",
          "name": "",
          "type": "uint256"
        }
      ],
      "stateMutability": "view",
      "type": "function"
    },
    {
      "inputs": [],
      "name": "location",
      "outputs": [
        {
          "internalType": "string",
          "name": "",
          "type": "string"
        }
      ],
      "stateMutability": "view",
      "type": "function"
    },
    {
      "inputs": [],
      "name": "maxSupply",
      "outputs": [
        {
          "internalType": "uint256",
          "name": "",
          "type": "uint256"
        }
      ],
      "stateMutability": "view",
      "type": "function"
    },
    {
      "inputs": [],
      "name": "name",
      "outputs": [
        {
          "internalType": "string",
          "name": "",
          "type": "string"
        }
      ],
      "stateMutability": "view",
      "type": "function"
    },
    {
      "inputs": [],
      "name": "owner",
      "outputs": [
        {
          "internalType": "address",
          "name": "",
          "type": "address"
        }
      ],
      "stateMutability": "view",
      "type": "function"
    },
    {
      "inputs": [
        {
          "internalType": "uint256",
          "name": "tokenAmount",
          "type": "uint256"
        }
      ],
      "name": "purchaseTokens",
      "outputs": [],
      "stateMutability": "payable",
      "type": "function"
    },
    {
      "inputs": [],
      "name": "renounceOwnership",
      "outputs": [],
      "stateMutability": "nonpayable",
      "type": "function"
    },
    {
      "inputs": [],
      "name": "symbol",
      "outputs": [
        {
          "internalType": "string",
          "name": "",
          "type": "string"
        }
      ],
      "stateMutability": "view",
      "type": "function"
    },
    {
      "inputs": [],
      "name": "tokenPrice",
      "outputs": [
        {
          "internalType": "uint256",
          "name": "",
          "type": "uint256"
        }
      ],
      "stateMutability": "view",
      "type": "function"
    },
    {
      "inputs": [],
      "name": "totalSupply",
      "outputs": [
        {
          "internalType": "uint256",
          "name": "",
          "type": "uint256"
        }
      ],
      "stateMutability": "view",
      "type": "function"
    },
    {
      "inputs": [
        {
          "internalType": "address",
          "name": "to",
          "type": "address"
        },
        {
          "internalType": "uint256",
          "name": "value",
          "type": "uint256"
        }
      ],
      "name": "transfer",
      "outputs": [
        {
          "internalType": "bool",
          "name": "",
          "type": "bool"
        }
      ],
      "stateMutability": "nonpayable",
      "type": "function"
    },
    {
      "inputs": [
        {
          "internalType": "address",
          "name": "from",
          "type": "address"
        },
        {
          "internalType": "address",
          "name": "to",
          "type": "address"
        },
        {
          "internalType": "uint256",
          "name": "value",
          "type": "uint256"
        }
      ],
      "name": "transferFrom",
      "outputs": [
        {
          "internalType": "bool",
          "name": "",
          "type": "bool"
        }
      ],
      "stateMutability": "nonpayable",
      "type": "function"
    },
    {
      "inputs": [
        {
          "internalType": "address",
          "name": "newOwner",
          "type": "address"
        }
      ],
      "name": "transferOwnership",
      "outputs": [],
      "stateMutability": "nonpayable",
      "type": "function"
    },
    {
      "inputs": [],
      "name": "withdraw",
      "outputs": [],
      "stateMutability": "nonpayable",
      "type": "function"
    }
  ],
  "bytecode": "0x60a06040523480156200001157600080fd5b506040516200164d3803806200164d833981016040819052620000349162000207565b338a8a6003620000458382620003c7565b506004620000548282620003c7565b5050506001600160a01b0381166200008657604051631e4fbdf760e01b81526000600482015260240160405180910390fd5b6200009181620000f0565b50608088905260068790556007620000aa8782620003c7565b506008620000b98682620003c7565b506009620000c88582620003c7565b50600a620000d78482620003c7565b50600b91909155600c5550620004939650505050505050565b600580546001600160a01b038381166001600160a01b0319831681179093556040519116919082907f8be0079c531659141344cd1fd0a4f28419497f9722a3daafe3b4186f6b6457e090600090a35050565b634e487b7160e01b600052604160045260246000fd5b600082601f8301126200016a57600080fd5b81516001600160401b038082111562000187576200018762000142565b604051601f8301601f19908116603f01168101908282118183101715620001b257620001b262000142565b81604052838152602092508683858801011115620001cf57600080fd5b600091505b83821015620001f35785820183015181830184015290820190620001d4565b600093810190920192909252949350505050565b6000806000806000806000806000806101408b8d0312156200022857600080fd5b8a516001600160401b03808211156200024057600080fd5b6200024e8e838f0162000158565b9b5060208d01519150808211156200026557600080fd5b620002738e838f0162000158565b9a5060408d0151995060608d0151985060808d01519150808211156200029857600080fd5b620002a68e838f0162000158565b975060a08d0151915080821115620002bd57600080fd5b620002cb8e838f0162000158565b965060c08d0151915080821115620002e257600080fd5b620002f08e838f0162000158565b955060e08d01519150808211156200030757600080fd5b50620003168d828e0162000158565b9350506101008b015191506101208b015190509295989b9194979a5092959850565b600181811c908216806200034d57607f821691505b6020821081036200036e57634e487b7160e01b600052602260045260246000fd5b50919050565b601f821115620003c257600081815260208120601f850160051c810160208610156200039d5750805b601f850160051c820191505b81811015620003be57828155600101620003a9565b5050505b505050565b81516001600160401b03811115620003e357620003e362000142565b620003fb81620003f4845462000338565b8462000374565b602080601f8311600181146200043357600084156200041a5750858301515b600019600386901b1c1916600185901b178555620003be565b600085815260208120601f198616915b82811015620004645788860151825594840194600190910190840162000443565b5085821015620004835787850151600019600388901b60f8161c191681555b5050505050600190811b01905550565b608051611197620004b6600039600081816103ca01526109ef01526111976000f3fe6080604052600436106101665760003560e01c806370a08231116100d15780638da5cb5b1161008a578063d5abeb0111610064578063d5abeb01146103b8578063dd62ed3e146103ec578063ed0ea00314610432578063f2fde38b1461045f57600080fd5b80638da5cb5b1461035b57806395d89b4114610383578063a9059cbb1461039857600080fd5b806370a08231146102bb578063715018a6146102f157806375513802146103065780637a3a0e841461031c5780637b97008d146103325780637ff9b5961461034557600080fd5b8063278de00011610123578063278de00014610241578063313ce567146102565780633ccfd60b14610272578063516f279e1461028957806362b1f2ed1461029e57806365c3c9b7146102b357600080fd5b806303e781031461016b57806306fdde031461019657806309434f28146101ab578063095ea7b3146101d257806318160ddd1461020257806323b872dd14610221575b600080fd5b34801561017757600080fd5b5061018061047f565b60405161018d9190610f6e565b60405180910390f35b3480156101a257600080fd5b5061018061050d565b3480156101b757600080fd5b506101c061059f565b60405161018d96959493929190610f88565b3480156101de57600080fd5b506101f26101ed366004611007565b6107fa565b604051901515815260200161018d565b34801561020e57600080fd5b506002545b60405190815260200161018d565b34801561022d57600080fd5b506101f261023c366004611031565b610814565b34801561024d57600080fd5b50610180610838565b34801561026257600080fd5b506040516012815260200161018d565b34801561027e57600080fd5b50610287610845565b005b34801561029557600080fd5b50610180610889565b3480156102aa57600080fd5b50610180610896565b6102876108a3565b3480156102c757600080fd5b506102136102d636600461106d565b6001600160a01b031660009081526020819052604090205490565b3480156102fd57600080fd5b5061028761092a565b34801561031257600080fd5b50610213600c5481565b34801561032857600080fd5b50610213600b5481565b610287610340366004611088565b61093e565b34801561035157600080fd5b5061021360065481565b34801561036757600080fd5b506005546040516001600160a01b03909116815260200161018d565b34801561038f57600080fd5b50610180610b2c565b3480156103a457600080fd5b506101f26103b3366004611007565b610b3b565b3480156103c457600080fd5b506102137f000000000000000000000000000000000000000000000000000000000000000081565b3480156103f857600080fd5b506102136104073660046110a1565b6001600160a01b03918216600090815260016020908152604080832093909416825291909152205490565b34801561043e57600080fd5b5061021361044d36600461106d565b600d6020526000908152604090205481565b34801561046b57600080fd5b5061028761047a36600461106d565b610b49565b6008805461048c906110d4565b80601f01602080910402602001604051908101604052809291908181526020018280546104b8906110d4565b80156105055780601f106104da57610100808354040283529160200191610505565b820191906000526020600020905b8154815290600101906020018083116104e857829003601f168201915b505050505081565b60606003805461051c906110d4565b80601f0160208091040260200160405190810160405280929190818152602001828054610548906110d4565b80156105955780601f1061056a57610100808354040283529160200191610595565b820191906000526020600020905b81548152906001019060200180831161057857829003601f168201915b5050505050905090565b606080606080600080600760086009600a600b54600c548580546105c2906110d4565b80601f01602080910402602001604051908101604052809291908181526020018280546105ee906110d4565b801561063b5780601f106106105761010080835404028352916020019161063b565b820191906000526020600020905b81548152906001019060200180831161061e57829003601f168201915b5050505050955084805461064e906110d4565b80601f016020809104026020016040519081016040528092919081815260200182805461067a906110d4565b80156106c75780601f1061069c576101008083540402835291602001916106c7565b820191906000526020600020905b8154815290600101906020018083116106aa57829003601f168201915b505050505094508380546106da906110d4565b80601f0160208091040260200160405190810160405280929190818152602001828054610706906110d4565b80156107535780601f1061072857610100808354040283529160200191610753565b820191906000526020600020905b81548152906001019060200180831161073657829003601f168201915b50505050509350828054610766906110d4565b80601f0160208091040260200160405190810160405280929190818152602001828054610792906110d4565b80156107df5780601f106107b4576101008083540402835291602001916107df565b820191906000526020600020905b8154815290600101906020018083116107c257829003601f168201915b50505050509250955095509550955095509550909192939495565b600033610808818585610b84565b60019150505b92915050565b600033610822858285610b96565b61082d858585610c15565b506001949350505050565b6007805461048c906110d4565b61084d610c74565b6005546040516001600160a01b03909116904780156108fc02916000818181858888f19350505050158015610886573d6000803e3d6000fd5b50565b600a805461048c906110d4565b6009805461048c906110d4565b6108ab610c74565b600034116108f55760405162461bcd60e51b81526020600482015260126024820152714e6f20686172766573742072657475726e7360701b60448201526064015b60405180910390fd5b6040513481527f3c62f024362fa897ebc89aaa2cf3aefa1f6184f2733aabf1b1f90c690d7548ac9060200160405180910390a1565b610932610c74565b61093c6000610ca1565b565b6000811161099a5760405162461bcd60e51b815260206004820152602360248201527f546f6b656e20616d6f756e74206d75737420626520677265617465722074686160448201526206e20360ec1b60648201526084016108ec565b6006546109a79082611124565b3410156109ed5760405162461bcd60e51b8152602060048201526014602482015273125b9cdd59999a58da595b9d081c185e5b595b9d60621b60448201526064016108ec565b7f000000000000000000000000000000000000000000000000000000000000000081610a1860025490565b610a22919061113b565b1115610a655760405162461bcd60e51b815260206004820152601260248201527145786365656473206d617820737570706c7960701b60448201526064016108ec565b336000908152600d602052604081208054349290610a8490849061113b565b90915550610a9490503382610cf3565b604080513481526020810183905233917f8fafebcaf9d154343dad25669bfa277f4fbacd7ac6b0c4fed522580e040a0f33910160405180910390a2600654610adc9082611124565b3411156108865760065433906108fc90610af69084611124565b610b00903461114e565b6040518115909202916000818181858888f19350505050158015610b28573d6000803e3d6000fd5b5050565b60606004805461051c906110d4565b600033610808818585610c15565b610b51610c74565b6001600160a01b038116610b7b57604051631e4fbdf760e01b8152600060048201526024016108ec565b61088681610ca1565b610b918383836001610d29565b505050565b6001600160a01b03838116600090815260016020908152604080832093861683529290522054600019811015610c0f5781811015610c0057604051637dc7a0d960e11b81526001600160a01b038416600482015260248101829052604481018390526064016108ec565b610c0f84848484036000610d29565b50505050565b6001600160a01b038316610c3f57604051634b637e8f60e11b8152600060048201526024016108ec565b6001600160a01b038216610c695760405163ec442f0560e01b8152600060048201526024016108ec565b610b91838383610dfe565b6005546001600160a01b0316331461093c5760405163118cdaa760e01b81523360048201526024016108ec565b600580546001600160a01b038381166001600160a01b0319831681179093556040519116919082907f8be0079c531659141344cd1fd0a4f28419497f9722a3daafe3b4186f6b6457e090600090a35050565b6001600160a01b038216610d1d5760405163ec442f0560e01b8152600060048201526024016108ec565b610b2860008383610dfe565b6001600160a01b038416610d535760405163e602df0560e01b8152600060048201526024016108ec565b6001600160a01b038316610d7d57604051634a1406b160e11b8152600060048201526024016108ec565b6001600160a01b0380851660009081526001602090815260408083209387168352929052208290558015610c0f57826001600160a01b0316846001600160a01b03167f8c5be1e5ebec7d5bd14f71427d1e84f3dd0314c0f7b2291e5b200ac8c7c3b92584604051610df091815260200190565b60405180910390a350505050565b6001600160a01b038316610e29578060026000828254610e1e919061113b565b90915550610e9b9050565b6001600160a01b03831660009081526020819052604090205481811015610e7c5760405163391434e360e21b81526001600160a01b038516600482015260248101829052604481018390526064016108ec565b6001600160a01b03841660009081526020819052604090209082900390555b6001600160a01b038216610eb757600280548290039055610ed6565b6001600160a01b03821660009081526020819052604090208054820190555b816001600160a01b0316836001600160a01b03167fddf252ad1be2c89b69c2b068fc378daa952ba7f163c4a11628f55a4df523b3ef83604051610f1b91815260200190565b60405180910390a3505050565b6000815180845260005b81811015610f4e57602081850181015186830182015201610f32565b506000602082860101526020601f19601f83011685010191505092915050565b602081526000610f816020830184610f28565b9392505050565b60c081526000610f9b60c0830189610f28565b8281036020840152610fad8189610f28565b90508281036040840152610fc18188610f28565b90508281036060840152610fd58187610f28565b6080840195909552505060a00152949350505050565b80356001600160a01b038116811461100257600080fd5b919050565b6000806040838503121561101a57600080fd5b61102383610feb565b946020939093013593505050565b60008060006060848603121561104657600080fd5b61104f84610feb565b925061105d60208501610feb565b9150604084013590509250925092565b60006020828403121561107f57600080fd5b610f8182610feb565b60006020828403121561109a57600080fd5b5035919050565b600080604083850312156110b457600080fd5b6110bd83610feb565b91506110cb60208401610feb565b90509250929050565b600181811c908216806110e857607f821691505b60208210810361110857634e487b7160e01b600052602260045260246000fd5b50919050565b634e487b7160e01b600052601160045260246000fd5b808202811582820484141761080e5761080e61110e565b8082018082111561080e5761080e61110e565b8181038181111561080e5761080e61110e56fea26469706673582212209142df12581e6d7129d3fc07ab2ddd35001fa683090c98dc55dc3918ecf6bcaa64736f6c63430008140033",
  "linkReferences": {},
  "deployedLinkReferences": {}
}